:020000040800F2
:100000007812002499030008D9190008C1190008C2
:10001000D119000861080008291D0008000000002F
:10002000000000000000000000000000AF03000816
:100030006908000800000000AD040008650400081D
:10004000B7030008B7030008B7030008B7030008A8
:10005000B7030008B7030008B7030008B703000898
:10006000B7030008B7030008B7030008B703000888
:10007000B7030008B7030008B7030008B703000878
:10008000B7030008B7030008B7030008B703000868
:10009000B7030008B7030008B7030008B703000858
:1000A000B7030008B7030008B7030008B703000848
:1000B000B7030008B7030008B7030008B703000838
:1000C000B7030008B7030008B7030008B703000828
:1000D000B7030008B7030008B7030008B703000818
:1000E000B7030008B703000800000000B7030008CA
:1000F000B7030008B7030008B7030008B7030008F8
:10010000B7030008B7030008B7030008B7030008E7
:10011000B7030008B7030008B7030008B7030008D7
:10012000B7030008B7030008B7030008B7030008C7
:10013000B7030008B7030008B7030008B7030008B7
:1001400000000000000000000000000000000000AF
:10015000B7030008B7030008B7030008B703000897
:10016000B7030008B7030008B7030008B703000887
:10017000B7030008B7030008B70300080000000039
:10018000B7030008B7030008B7030008B703000867
:10019000B7030008B7030008B7030008B703000857
:1001A000B7030008B7030008B70300080000000009
:1001B000B7030008B7030008B7030008B703000837
:1001C000B7030008B70300080000000000000000AB
:1001D0000000000000000000B7030008000000005D
:1001E000000000000000000000000000000000000F
:1001F0000000000000000000B7030008B70300087B
:10020000B7030008B703000800000000B7030008A8
:10021000B7030008B7030008B7030008B7030008D6
:10022000B703000800000000B7030008000000004A
:10023000B7030008B703000800000000B703000878
:10024000B7030008B7030008B7030008B7030008A6
:10025000B7030008B7030008B7030008B703000896
:10026000B7030008B7030008B7030008B703000886
:10027000B7030008B7030008B70300080000000038
:10028000B7030008B7030008B7030008B703000866
:1002900000000000B7030008B703000800000000DA
:1002A00000000000B7030008B7030008B703000808
:1002B000B7030008B7030008B7030008B703000836
:1002C000B7030008811B0008B703000800F002F81C
:1002D00000F052F814A696E8000CB244B344DA4594
:1002E00001D100F049F8BAE80F000FA696E83000F7
:1002F000A5EB040504EB0607AAEB0704A7F1010729
:100300004FEA15154FEA3414A4F10104AC4201D3AD
:1003100000F032F813F0010F18BFFB1A43F001038D
:1003200000F001F8DBE718473835000058350000C9
:10033000103A24BF78C878C1FAD8520724BF30C811
:1003400030C144BF04680C60704700007047000073
:100350000023002400250026103A28BF78C1FBD8CE
:10036000520728BF30C148BF0B6070471FB503F06C
:1003700061FA1FBD10B510BD00F0B2F91146FFF7CC
:10038000F5FF03F0B9F900F0D0F903B4FFF7F2FF7D
:1003900003BC00F0D7F900000A4880470A488047AC
:1003A0000A480047FEE7FEE7FEE7FEE7FEE7FEE756
:1003B000FEE7FEE7FEE7FEE705480649064A074B6B
:1003C0007047000071080008A91A0008CD02000853
:1003D000780C002478120024780E0024780E002473
:1003E00000000008D4010024001000E0BF3B4703D8
:1003F0000000FF4000BF00BF00BF00BF00BF00BF44
:1004000072B64FF0E0205FF82810C0F8081D5FF8C2
:100410002C005FF83410096801605FF8340001684F
:1004200041F0010101604FF0E0205FF840104161B0
:100430004FF0070101614FF00001C0F8181D4FF0A7
:100440007F41C0F81C1D5FF85810C0F8201D704790
:10045000FFF7FEBFFFF7FEBFFFF7FEBF01B5BDE828
:100460000140704701B500F08BF8BDE801407047CE
:10047000FFF7FEBFFFF7FEBF000000000000000016
:100480004FF000002A4A1060EFF3148020F00400BF
:1004900080F3148862B64FF080504FF0E021C1F82D
:1004A000040DBFF34F8FBFF36F8FFEE72148224A41
:1004B0004FF00003016891B10360EFF3098C2CE960
:1004C000F00F1EF0100F01D12CED108A1B4C4CF8D0
:1004D00004ED2568C1F808C00DB18D61236072B6C6
:1004E0001168B1B1016062B64F68144C8D6907F1B3
:1004F00001074F602560D1F808C05CF804EB1EF0DE
:10050000100F01D1BCEC108ABCE8F00F8CF3098805
:10051000704772B61168016009B962B6F9E74FF029
:1005200000674FF0E028C8F8047D62B6DCE770474A
:1005300010010024F8000024FC0000242001002405
:10054000026922F00702A2F144026FF00203136075
:100550004FF0000353609360D36013615361936164
:10056000D361136253629362D362136353634FF098
:10057000FF339363D1634FF08073136482607047DD
:100580002249086800F101000860214B1A683AB15D
:10059000A2F101021A601AB91E4B4FF00100186057
:1005A0001D490868026822B11C4B4FF001021A6015
:1005B00008E000F104001A4B1A68904201D1194B6F
:1005C00018680860134B1A6812B914490868D0B14A
:1005D0002DE901401149086808B102F051FB0D4BAB
:1005E0001A6872B102F0F8FA0F48016849B90F4869
:1005F00001680F4A13680F484FF08052994200D0AB
:100600000260BDE80140BFF34F8F70471C0100241A
:1006100020010024240100243401002428010024A6
:10062000380100243001002410010024F8000024C7
:10063000FC00002404ED00E002F0FF0343EA032283
:1006400042EA024200F02CB84FF0000200B5134617
:1006500094469646203922BFA0E80C50A0E80C50E2
:10066000B1F12001BFF4F7AF090728BFA0E80C5093
:1006700048BF0CC05DF804EB890028BF40F8042B8C
:1006800008BF704748BF20F8022B11F0804F18BFF9
:1006900000F8012B70477047704770474FF0000219
:1006A0000429C0F0128010F0030C3FF4CFAFCCF15E
:1006B000040CBCF1020F18BF00F8012BA8BF20F8F2
:1006C000022BA1EB0C01FFF7C1BF5FEAC17C24BF85
:1006D00000F8012B00F8012B48BF00F8012B7047F0
:1006E000754600F02BF8AE4605006946534620F0EB
:1006F0000700854618B020B5FFF75EFEBDE8204034
:100700004FF000064FF000074FF000084FF0000BCD
:10071000AC46ACE8C009ACE8C009ACE8C009ACE83C
:10072000C00921F007018D46704710B50446AFF3AC
:1007300000802046BDE81040FFF727BE0048704704
:100740001800002401491820ABBEFEE72600020075
:10075000704700000000000070B588B007A94FF492
:100760000072002304464FF40076002502F0E4FBFB
:1007700010B1022008B070BD079843F2D972CDE9DC
:1007800000060A2024A1CDE902000120059040F2D4
:10079000C070C0F60002C2F2004000230495B026EB
:1007A000069602F0D9FE18B10E2008B070BD00BF49
:1007B00007A9042200232046042502F0BDFB0028DF
:1007C000D7D140F28870079BC2F2004016A10122E7
:1007D0003826CDE9005602F06BFD18B1092008B0AB
:1007E00070BD00BF40F2780413A1C2F200440022A1
:1007F0001C23204602F01CFE10B10C2008B070BD76
:1008000004F11C0011A10022342302F0ADFC0028E9
:1008100018BF1C2008B070BD7478206170702074FF
:1008200068726561640000007478206170702071E6
:100830007565756500000000747820617070207324
:10084000656D6170686F72650000000074782061EA
:100850007070206D75746578000000000000000065
:10086000FEE70000000000007047000000000000EC
:1008700044F60400C5F60200816841F0020181607F
:100880000168890409D4016889045CBF01685FEAD2
:10089000814102D401688904F2D57047000000004C
:1008A0002DE9F04F83B00F68002F00F0C98000F1F0
:1008B000264642F2004506F1FF76C5F602050A22F9
:1008C000A8424FEAB62540F2040C08BF092200F105
:1008D00020030093082DC5F6000C38BF4FEAB6225E
:1008E000002400264FF0000801920AE008F10108F8
:1008F0000F6837FA08F206F1020604F1040400F06A
:100900009F80012202FA08FE17EA0E09EED0D1F804
:1009100004B003220BF00307B2407D1E6FEA020A07
:10092000012D11D88268CD6802EA0A02B5402A4337
:100930008260CBF30015426822EA0E0205FA08F540
:100940002A43426004E000BF032F01D103271FE0C8
:10095000C2688D6802EA0A02B540022F42EA050227
:10096000C26015D16FF0030204F01C0502EA580BB7
:10097000009A0F2352F80BE0AB400F692EEA0303F5
:10098000AF403B4342F80B30D1F804B00BF0030703
:10099000026807FA06F302EA0A021BF4403F42EA41
:1009A00003020260A2D044F2F44340F2084EC5F6BE
:1009B0000203C5F6000E0F251A6842F002021A6003
:1009C0001A6802F00202029228F00302029B04F06D
:1009D0000C0352F80E709D40AF43019D05FA03F3DE
:1009E0003B4342F80E304FF0B04EDEF800204B682B
:1009F00042EA0907DD0258BF22EA09079D02CEF844
:100A00000070DCF8002042EA090758BF22EA090713
:100A10009D03CCF80070DCF8802042EA090758BF3B
:100A200022EA0907DB03CCF88070DCF87C2042EA7C
:100A3000090758BF22EA0907CCF87C7056E700BFC7
:100A400003B0BDE8F08F0000426902EA0103914360
:100A500041EA034181617047002A08BF09048161AE
:100A6000704700000000000040F67040C2F20040F5
:100A7000006870470000000040F2000040F670413E
:100A8000C2F20040C2F2004100780A6810440860D7
:100A9000704700000000000080B5032000F024F93A
:100AA00000F0E2FA44F2184143F64E03C5F60201A3
:100AB000C0F600030A68C2F303229A5C096801F0D9
:100AC0000F0102F01F02595CD04040F20C02C2F24A
:100AD000004201F01F0120FA01F1116040F208010B
:100AE000C2F2004108600F2000F00AF800281CBF85
:100AF000012080BD00F0A4F8002080BD00000000AF
:100B00000F2843D8B0B58AB00446A1200022214660
:100B1000002500F0B9F8A12000F0A2F840F204008E
:100B2000C2F20040046044F2EC40C5F602000168E5
:100B300041F080710160006801A900F080700290AE
:100B4000029802A800F034FA00F05EFA4DF68361D4
:100B50004000C4F21B314EF20002A0FB010140F242
:100B60000870C2F200404FF0FF33C4F2000202608E
:100B700003EB9141C0E9011540F2E731C0E90315EB
:100B800000F0A6FD20B101200AB0B0BD01207047E1
:100B900040F20870C2F2004000F0CEFD0AB0B0BDD5
:100BA00010B54EF6A05E4378CEF2000E90F800C06D
:100BB0004EF8083CDEF8003023F00103CEF8003098
:100BC00043684EF8043C037BC27A817A447B120668
:100BD00042EA0372837B42EAC141C27B41EA84411B
:100BE000447A41EA4341007A41EA024141EA042160
:100BF00041EA400040EA0C00CEF8000010BD0000C1
:100C00004EF62450CEF20000BFF35F8F016821F44E
:100C10008031016000210167704700000000000082
:100C20004EF6245140F00100CEF20001086708683A
:100C300040F480300860BFF34F8FBFF36F8F704771
:100C400081B044F2F440C5F60200016841F00201AF
:100C50000160006800F002000090009801B0704749
:100C6000002848BF704700F01F01012202FA01F17D
:100C70004EF20012C0F34A10CEF2000242F82010E9
:100C8000704700000000000070B54EF60C5C4FF09D
:100C9000FF36CEF2000C00F1604505F56445DCF846
:100CA0000030C3F3022E8EF00703042B28BF042369
:100CB000BEF1030406FA03F321EA030100F00F0377
:100CC00038BF0024043B0028634406FA04F048BF00
:100CD00003F10C05A14022EA00000843000128703E
:100CE00070BD0000000000004EF60C514FF6FF03EF
:100CF000CEF200010A681A4060F30A2242F08060D6
:100D000040F0FD7008607047B0B544F60C05C5F6BC
:100D1000020529684907296806D401F00701081A65
:100D200018BF0120B0BD00BF21F0070108432860B3
:100D3000FFF79AFE044600BF55F8080C800407D45C
:100D4000FFF792FE001BB0F57A7FF5D90120B0BD08
:100D50000020B0BD000000002DE9F04381B0002864
:100D600000F0208142F200090446C5F20029D9F8BA
:100D7000000000F00F0081420DD9D9F8000020F0EA
:100D80000F000843C9F80000D9F8000000F00F0078
:100D9000884240F00781206844F218464207C5F6B1
:100DA00002060AD52269336803F070039A4204D917
:100DB000336823F070031A43326002070AD5626970
:100DC000736803F070039A4204D9736823F07003C8
:100DD0001A437260C2060AD5A269736803F4E0631D
:100DE0009A4204D9736823F4E0631A43726082065E
:100DF0000AD5E269B36803F070039A4204D9B36874
:100E000023F070031A43B26010F002020AD0E368C4
:100E1000376807F00F07BB4204D9376827F00F0780
:100E20003B433360C3073FD0306820F47062D4E99D
:100E300001031A433260012856F8182C0AD00328FF
:100E400004D002280AD192030BD4ABE0920108D45B
:100E5000A8E000BFD20504D4A4E000BF520740F1CF
:100E6000A180884656F8081C21F00701084346F87F
:100E7000080CFFF7F9FD054641F2883756F8080CD3
:100E8000616800F03800B0EBC10F09D0FFF7ECFD4E
:100E9000401BB842F2D9032001B0BDE8F08300BF87
:100EA0002068414600F0020252B1E268336803F064
:100EB0000F039A4204D2336823F00F031A433260BF
:100EC000D9F8002002F00F0291420CD2D9F800208C
:100ED00022F00F020A43C9F80020D9F8002002F0DE
:100EE0000F028A425ED141070AD52169326802F0B9
:100EF0007002914204D2326822F0700211433160D4
:100F000001070AD56169726802F07002914204D249
:100F1000726822F0700211437160C1060AD5A1699E
:100F2000726802F4E062914204D2726822F4E062D4
:100F30001143716080060AD5E069B16801F0700163
:100F4000884204D2B16821F070010843B06000F01B
:100F50008BF8316843F64E02C0F60002C1F303215C
:100F6000515C336803F00F0301F01F01D25C20FADB
:100F700001F102F01F0040F20C02C2F2004221FA1D
:100F800000F0106040F2040040F20802C2F200409B
:100F9000C2F200420068116001B0BDE8F043FFF703
:100FA000AFBD00BF012001B0BDE8F083000000002C
:100FB0003F22026044F21842C5F6020252F8083C91
:100FC00003F007034360136803F4706383601368DE
:100FD00003F00F03C360136803F0700303615368E9
:100FE00003F070034361536803F4E0638361926824
:100FF00002F07002C26142F20000C5F200200068F7
:1010000000F00F000860704780B500F02DF844F242
:10101000184C43F64E03C5F6020CC0F60003DCF88C
:101020000020C2F303229A5CDCF8001001F00F01EB
:1010300002F01F02595CD04040F20C02C2F20042A2
:1010400001F01F0120FA01F1116040F20802C2F222
:1010500000421060DCF80400C0F30220185C00F0CD
:101060001F0021FA00F080BD44F20041C5F60201E4
:101070000869C0F3C200032816D002280ED0002849
:1010800032D10868800649F20000C0F2D03058BF63
:1010900070470968C1F3C101C840704747F6400076
:1010A000C0F27D10704700BF8B6A886AD1F82CC0EF
:1010B0004A6BC0F30510E8B1C2F3CC0203F003039E
:1010C00000EE102A9FED2A1AB8EE400A20EE010A1F
:1010D0009FED281ADFE803F0022110210A6892062A
:1010E0000ED49FED261A18E040F60010C0F23D0025
:1010F000704700BF002070479FED1F1A0DE000BF32
:101100000A6849F20003C0F2D033C2F3C10223FAE5
:1011100002F201EE102AB8EE411A0A6B9FED183A5E
:101120006FF35F2202EE102A5FEACC7203FE000A20
:1011300003EE100A086BB8EE422AC0F34620B8EE60
:10114000433A013030EE020AB7EE002A81EE031A6C
:1011500030EE020A21EE000A01EE100AB8EE411A42
:1011600080EE010ABCEEC00A10EE100A704700BF04
:10117000000000390024744A20BCBE4B0024744C8B
:10118000000000000000000070B3F0B581B004461C
:10119000007844F20046C007C5F6020626D1207842
:1011A00080076AD5306910F03801B06A42D018293A
:1011B00008BF5FEA80703DD0E0683168002800F029
:1011C0002D8121F0190108433060FFF74DFC0546E1
:1011D000306840074AD4FFF747FC401B0228F7D984
:1011E000032001B0F0BD00BF01207047306900F05E
:1011F0003801B06A102905D018290BD100F003007E
:10120000022807D130688003C9D560680028C6D19C
:10121000AAE000BF61683068002900F03981B1F5AB
:10122000A02F00F02D81B1F5803F40F0478140F4C0
:10123000803049E130684007E06802D5002800F0BE
:101240009380316821F0190108433060FFF70CFCEE
:10125000054600BF3068400708D4FFF705FC401B77
:1012600002284FF00300F5D901B0F0BD7068216984
:1012700020F0FE4040EA016070602078C0061AD578
:10128000306900F03801B06A082907D0182940F009
:10129000858000F00300012840F080803068C005A0
:1012A00002D5E06980285FD1F068216A20F07C5087
:1012B00040EA0160F060207800073FD42078800683
:1012C00056D42078400700F18180656A9DB330696B
:1012D00000F03800182840F01981012DB16A306BF8
:1012E00042D001F00302A36A9A423DD1C1F3051135
:1012F000E26A914238D10146226B6FF35F21013AD5
:10130000914231D1C0F34622616B01398A422BD11F
:10131000C0F30642A16B01398A4225D1C0F30660B1
:10132000E16B013988421FD1706BA16CC0F3CC0016
:10133000814240F0A581002001B0F0BD6069002825
:10134000706F59D040F001007067FFF78DFB0546C4
:10135000706F8007B2D4FFF787FB401B0228F7D9D4
:10136000032001B0F0BD00BF012001B0F0BD00BFFF
:10137000A0690028306871D040F480503060FFF7D9
:1013800073FB0546306880049BD4FFF76DFB401B60
:101390000228F7D9032001B0F0BD00BFE0690028A2
:1013A000306800F0A18040F080003060FFF75CFB07
:1013B000054600BF3068C0053FF576AFFFF754FB28
:1013C000401B02284FF00300F4D94DE7D6F8000483
:1013D00040F48070C6F80004FFF746FB054600BFE6
:1013E000D6F80004C0052BD4FFF73EFB401B642851
:1013F000F6D9032001B0F0BD20F001007067FFF7BF
:1014000033FB0546706F80077FF558AFFFF72CFB65
:10141000401B02284FF00300F4D925E721F001001A
:101420003060FFF721FB0546306840077FF525AFA8
:10143000FFF71AFB401B02284FF00300F4D913E713
:10144000A168306F002900F08B80052900F08080B2
:10145000012940F09D8040F001009FE020F4805081
:101460003060FFF701FB0546306880047FF529AF47
:10147000FFF7FAFA401B02284FF00300F4D9F3E615
:1014800040F480203060306840F480301CE000BFC1
:1014900020F480303060306820F480203060FFF726
:1014A000E3FA0546306880037FF579AEFFF7DCFA92
:1014B000401B64284FF00300F4D9D5E620F48030B7
:1014C0003060306820F480203060FFF7CDFA0546A8
:1014D000306880033FF563AEFFF7C6FA401B64280F
:1014E000F6D9032001B0F0BD20F080003060FFF796
:1014F000BBFA05463068C0057FF5DDAEFFF7B4FAEC
:10150000401B02284FF00300F4D9ADE6306820F00C
:1015100080703060FFF7A8FA022D05460CD100BF9D
:10152000306880014CD5FFF79FFA401B02284FF02E
:101530000300F5D998E600BF306880017FF5FBAE67
:10154000FFF792FA401B02284FF00300F4D98BE614
:1015500040F004003067306F40F001001EE000BF33
:1015600020F001003067306F20F004003067FFF793
:101570007BFA054641F28837306F80077FF5A5AECC
:10158000FFF772FA401BB8424FF00300F4D96BE644
:1015900020F001003067306F20F004003067FFF763
:1015A00063FA054641F28837306F80073FF58DAE0C
:1015B000FFF75AFA401BB8424FF00300F4D953E644
:1015C00004F12807B06A40F2F33188438ECF084314
:1015D000591E40EA02104FF47E426FF35F21B06261
:1015E00002EB47204FF4FE0280B2E36B0844A16B8C
:1015F00002EB01414FF0FE4201F4FE0102EB0362F7
:10160000084402F0FE4108443063F06A4FF6F87176
:1016100020F00100F062706BA26C884340EAC200C7
:101620007063F06A216C20F00C000843F062F06AED
:10163000616C20F002000843F062F06A40F48030F0
:10164000F062F06A40F40030F062F06A40F480200A
:10165000F062F06A40F00100F062306840F08070A3
:101660003060FFF701FA0446306880013FF563AE51
:10167000FFF7FAF9001B02284FF00300F4D9F3E555
:10168000F06A20F00100F062FFF7EEF90546FFF77F
:10169000EBF9A842FBD0706B4FF6F871A26C88434F
:1016A00040EAC2007063F06A40F00100F06200207E
:1016B00001B0F0BD00000000704700000000000015
:1016C00070470000000000007047000000000000AC
:1016D00060B310B5044690F83D0028B9002084F8A6
:1016E0003C00204600F024F8022084F83D002068E9
:1016F000211D00F05DFA012084F8480084F83E00C6
:1017000084F83F0084F8400084F8410084F84200E7
:1017100084F8430084F8440084F8450084F84600C7
:1017200084F8470084F83D00002010BD0120704778
:10173000704700000000000090F83D10012927D1FB
:10174000022180F83D1001684DF6FF70C4F20000E0
:101750008142C86840F00100C8601BDC40F2FF70A5
:10176000C4F2000081422DDD40F60000C4F200000A
:1017700081423DD040F60040C4F20000814237D0A3
:1017800041F60000C4F20000814231D03CE000BFCD
:10179000012070474FF6FF70C4F2000081421BDD4C
:1017A0000020C4F20100814222D044F20000C4F2C1
:1017B000010081421CD040F20040C4F2010081428D
:1017C00016D021E0B1F1804F12D040F20040C4F2B7
:1017D000000081420CD017E04EF20000C4F200007D
:1017E000814205D04EF20040C4F2000081420BD18C
:1017F00007228868C0F2010202400020062A18BFB2
:10180000B2F5803F00D17047086840F001000860E1
:10181000002070470000000070470000000000003A
:10182000F0B581B004460068C5680669B10717D5F0
:1018300015F0020114D06FF002010161012121773E
:101840008069800704D02046FFF7E6FF06E000BF6E
:10185000204600F09DF8204600F09EF800202077FA
:10186000700719D515F0040016D020686FF0040138
:10187000016102212177806910F4407F04D0204665
:10188000FFF7CAFF06E000BF204600F081F82046BF
:1018900000F082F800202077300717D515F00800F7
:1018A00014D020686FF00801016104212177C0691C
:1018B000800703D02046FFF7AFFF05E0204600F089
:1018C00067F8204600F068F800202077F00619D568
:1018D00015F0100016D020686FF01001016108218A
:1018E0002177C06910F4407F04D02046FFF794FFB1
:1018F00006E000BF204600F04BF8204600F04CF810
:1019000000202077F00718BF15F0010006D02068EE
:101910006FF001010161204600F042F805F08007F8
:1019200016F4025F18BF002F02D1F00509D410E0B1
:1019300020686FF4025101612046FFF7C1FEF005F7
:1019400007D537B120686FF4807101612046FFF739
:10195000B3FE700609D515F0400006D020686FF080
:1019600040010161204600F027F8B0060CD515F0C3
:10197000200009D020686FF020010161204601B0ED
:10198000BDE8F040FFF7A0BE01B0F0BD00000000D0
:1019900070470000000000007047000000000000D9
:1019A0004EF200010068C4F20001884218BF70477F
:1019B000FFF762B800000000704700000000000060
:1019C000FEE700000000000000F04ABB000000003D
:1019D000FEE7000000000000FEE70000000000003D
:1019E000B0B59CB044F6180409A84C21C5F6020411
:1019F000FEF72AFE02200025CDE90755CDE9055561
:101A0000CDE90355CDE90155FFF77EF90095206832
:101A100020F440402060206800F44040009000988E
:101A20002068800409D4206880045CBF20685FEAD5
:101A3000804002D420688004F2D5012009902C2235
:101A40004FF48031CDE915200C20199009A80A9196
:101A500002211491CDE91211CDE917110024CDE92D
:101A60001A44FFF791FB28B1EFF3108072B600BF64
:101A7000FEE700BF3F20019003204FF48061CDE9D5
:101A80000204082004904020CDE90500CDE90710AC
:101A900001A80321FFF760F920B1EFF3108072B6BF
:101AA000FEE700BF1CB0B0BD4EF6885042F2000CFD
:101AB000CEF20000C5F2002C026842F4700202600F
:101AC000DCF8000000F00F00062806D8DCF8000063
:101AD000072262F30300CCF8000044F200404EF607
:101AE0007F51C5F60200CEF6F621026842F00102EF
:101AF000026000220261036819400160DCF80010F6
:101B0000090706D5DCF80010072363F30301CCF8BE
:101B1000001040F200218261C261C0F20221026223
:101B200081620021C0F2FF11C16240F28021C0F247
:101B30000111016342638163C2630164426401680D
:101B400021F4802101600266D0F8D410C90448BF96
:101B50007047D0F8D41043F2D20241F48051C0F85B
:101B6000D41044F20001C5F200210A60D0F8D4106C
:101B700021F48051C0F8D41070470000000000002C
:101B800010B540F20870C2F20040FFF749FE40F67F
:101B900000444FF48051C5F602042046FEF754FF7E
:101BA00004F540608021BDE81040FEF74DBF000005
:101BB00010B540F6FF32D0F800E0C4F200029042C7
:101BC00010DCB0F1804F1ED040F20043C4F200039D
:101BD000984218D040F60003C4F20003984212D095
:101BE00016E000BF40F60043C4F2000398420AD05A
:101BF00040F20043C4F20103984204D00023C4F22F
:101C00000103984204D12EF070024B6843EA020EA1
:101C10004EF2FF3343F6FF7CC4F20003C4F2010C22
:101C2000984213DD60452BDC4EF20043C4F2000302
:101C3000984242D00023C4F2010398423DD040F2C2
:101C40000043C4F20103984237D03BE040F2FF73F7
:101C5000C4F20003984227DD40F60003C4F20003FB
:101C600098422AD040F60043C4F20003984224D0A0
:101C70004EF20003C4F2000398421ED022E000BFDF
:101C800044F20003C4F20103984216D044F6000364
:101C9000C4F20103984210D044F20043C4F201039D
:101CA00098420AD00EE000BFB0F1804F05D040F25C
:101CB0000043C4F20003984204D12EF44072CB6872
:101CC00043EA020E4B6960450A688C68C46282620E
:101CD00012DD44F20002C4F20102904217D044F631
:101CE0000002C4F20102904211D044F20042C4F258
:101CF000010290420BD00CE00022C4F2010290429B
:101D000005D040F20042C4F20102904201D10969BB
:101D10000163016841F004010160012141612EF07D
:101D200080011943016010BDFEE7000000000000C3
:101D30002DE9F0410646D01C40F2F8020F46C2F2EF
:101D40000042EFF3108172B6984620F00304156844
:101D50003562304681F31088214600F0E9F8EFF350
:101D6000108172B6A0B9306AA842F1D1B8F1000F63
:101D70004FF00000386011D040F21010C2F2004065
:101D800002688AB181F310881020BDE8F08100BF9D
:101D90003860002081F31088BDE8F08181F310885D
:101DA0001020BDE8F08100BF41F61162B36AC0F6B1
:101DB0000002C5E91A26D5F8AC20C5E91E4702F194
:101DC0000102C5F8AC2003F10102B26233B1726ABC
:101DD0002A6752F8743F6B671D6703E0756205F16F
:101DE00074022D67156009222A630122AA63C5F8CF
:101DF0004C8002680132026081F31088284600F0AE
:101E000023FED5F88400BDE8F0810000000000004A
:101E100080B5EFF3108E72B641F61162836EC0F694
:101E20000002934202D08EF3108880BDD0F8AC201F
:101E30009142F8D1C16E0029F5D045F245430A68B8
:101E4000C4F259239A42EED18B6A002BEBD04FF0AB
:101E5000000C5A1EC0F868C08A6209D0D0E91C3252
:101E6000D1F824C05A678445136708BF4B6201E06C
:101E7000C1F824C0016B0929D5D11021C0F8841004
:101E800040F21011C2F200410A6801320A608EF37A
:101E9000108800F041FDEFF3108E72B68EF31088BB
:101EA00080BD000000000000F0B581B00F46342175
:101EB0001D4616460446FEF7C7FB25F00300676083
:101EC0003118A661E0610838C4E90466A0604EF6E6
:101ED000EE6041F8086DCFF6FF704C6040F2E80309
:101EE000C6E9001045F245410220E0600020206272
:101EF000EFF3108072B6C4F25921216040F2EC0178
:101F0000C2F20041C2F200430A682AB11F683E6B68
:101F10003C6306F12C0301E0274626461C60013293
:101F2000C4E90B760A6080F31088002001B0F0BD90
:101F30002DE9F041EFF3108E72B6D0E9022402EBE6
:101F4000C402103A914243D240F2F8024EF6EE6CCF
:101F5000C2F20042CFF6FF7C4369651C12684FF065
:101F600000080026026201E0002D47D05F68674547
:101F700016D1002E08BF43611E68F71A083F8F4232
:101F80002CD2D6E9007464450CD11F60C76844693F
:101F9000B442A7F10104C46000D14361012607E007
:101FA0001B6805E0013D4FF0010638BF45463B4642
:101FB0008EF31088EFF3108E72B6013D046A38BFBD
:101FC00045469442D0D0C46802624369651CCBE7A1
:101FD0008EF310880020BDE8F08100BF77B17A1A37
:101FE000142A11D3CA18C7680137C76042F8086FAE
:101FF0001646C2F804C01A6007E000BF8EF31088CE
:102000000020BDE8F08100BF39465860826847690A
:10201000511ABB42A1F10801816008BF46618EF3ED
:10202000108803F10800BDE8F08100000000000006
:1020300080B500F0B1FB00F037FE40F2C80000218F
:10204000C2F20040C0E90011C0E90211C0E9041168
:10205000C0E90611C0E90811C0E90A1180BD0000FD
:1020600010B540F21004C2F20044206810F10F3F96
:102070000DD04FF0F0302060FEF7C2F9FFF7D8FF27
:1020800040F21010C2F200400168013101604FF0CF
:10209000F030206040F25010C2F20040006801F0C1
:1020A0009FFB00202060BDE81040FEF7E9B900006A
:1020B00070B50E46342115460446FEF7C5FA45F2C2
:1020C000454166602561EFF3108072B6C4F6555144
:1020D000216040F2F40140F21413C2F20041C2F256
:1020E000004342F221560A68C0F600061E6040F224
:1020F000F003C2F200432AB11E68756A746205F1EA
:10210000200301E0264625461C600132C4E908652B
:102110000A6080F31088002070BD000000000000FD
:102120002DE9F041EFF3108872B6D0F81CC0BCF175
:10213000010F05D888F310880020BDE8F08100BFAA
:102140008369BCF1020F1C6F0AD1E16ADA6A91421D
:1021500038BF846188F310880020BDE8F08100BF9B
:1021600040F2101E1A46C2F2004EDEF80010013195
:10217000CEF8001006E000BF2B462A46B4462C6F6E
:10218000944213D0E76AD96A88F31088EFF3108875
:1021900072B6D0E90656AA42EED18F4238BF234626
:1021A000B445E9D125462C6F9442EBD1DEF80010FE
:1021B0009342A1F10101CEF8001009D0D3E91C1718
:1021C00083614F673967516FC3E91C210B67536700
:1021D00088F3108800F078FB0020BDE8F081000053
:1021E0002DE9F041EFF3108272B60446006B0D4604
:1021F00050B1D4F89800E562A84238BF0546E563BF
:1022000082F31088BDE8F08140F2FC0640F2101025
:10221000C2F20046C2F20040D4F82C803768016850
:10222000023101600E2020630120A0630020E064E1
:1022300082F31088204600F007FCEFF3108072B69E
:10224000D4F89810E562A94228BF2946E16380F3DB
:102250001088204600F060FBEFF3108072B6326801
:10226000944201D0216B19B180F31088BDE8F08150
:10227000E16AD26A914203D9E36B9342F4D801E058
:10228000BC42F1D1A8453460EED240F25412C2F201
:10229000004242F8214080F31088BDE8F081000040
:1022A0002DE9F041EFF3108172B68368B3B140F2CB
:1022B000F807C268C2F200473F68BA4205D040F250
:1022C0001017C2F200473F6807B3013B83600BD091
:1022D00081F310880020BDE8F08100BF81F31088F1
:1022E0001E20BDE8F08100BFB2B1D2F8A030013BA2
:1022F000C2F8A03016D0D0E90B37D2F8A4601F6323
:102300008642FB6208BFC2F8A4300EE081F3108859
:102310001E20BDE8F08100BF81F310880020BDE8D9
:10232000F08100BF0023C2F8A4308369002B036949
:1023300008BF002B72D0012BD2F8944049D140F253
:102340001013C2F200431F6801371F6081F3108829
:102350002027D2F8A46086B331460D69012D03D140
:102360008D6ABD4238BF2F46C96AB14218BF0029E5
:1023700023D00D69012D03D18D6ABD4238BF2F4690
:10238000C96AB14218BF002917D00D69012D03D1C8
:102390008D6ABD4238BF2F46C96AB14218BF0029B5
:1023A0000BD00D69012D03D18D6ABD4238BF2F4678
:1023B000C96AB14218BF0029CFD1EFF3108172B6BC
:1023C0001E68A742A6F101061E60C2F89C7038BFC5
:1023D0003C46C269022A15D30269012A12D140F291
:1023E00010160546C2F2004632680132326081F3AF
:1023F0001088FFF795FEEFF3108172B62846326819
:10240000013A326085698DB10269012A34D1D0F870
:102410000C80EA6A4261202282622FE00022C260C0
:10242000002081F31088BDE8F08100BF40F2101554
:10243000C2F200452A6801322A6081F31088C1681F
:10244000CA6AA2424FF02002826205D006460846C0
:102450002146FFF7C5FE3046EFF3108172B62A68B9
:10246000013A2A600022C26081F3108800F02CFA41
:102470000020BDE8F08100BF4FF00008D5F8A02093
:1024800005F1A40332B11F683E6B386306F12C03DB
:1024900002E000BF0746064618600123C0E9023586
:1024A000C3690132C0E90B76C5F8A0205A1EC2618B
:1024B0004FF0000204D0D5E91C375F673B6700E0AE
:1024C00000238361AA66C5F8842040F21012C2F28C
:1024D000004213680133136081F3108801690129F8
:1024E00016D1C16961B10746FFF71AFEEFF31080FC
:1024F00072B6B96900291CBFC96AB96280F3108835
:10250000D8F82C00A04203D040462146FFF768FED1
:10251000284600F001FA0020BDE8F081000000002C
:1025200070B540F21015EFF31081C2F2004572B69B
:1025300004460126286801302860D4F8A40000BFB2
:1025400058B1866081F31088FFF7AAFEEFF310817F
:1025500072B6D4F8A4000028F2D1286801382860A7
:1025600081F3108870BD00002DE9F0410F4638213D
:102570001D4616460446DDF81880FEF765F8B000E3
:102580006760B8FBF0F000FB06F1A660C4E9050542
:10259000656240F2D00305EB8101E060C4E90715F4
:1025A00044F25551EFF3108072B6C5F25511216017
:1025B00040F2D401C2F20041C2F200430A682AB1DB
:1025C0001F687E6B7C6306F1300301E027462646D8
:1025D0001C600132C4E90C760A6080F31088002088
:1025E000BDE8F0810000000010B540F2CC0C0023E3
:1025F000C0E9003144F64151C2F2004CC0E9022367
:10260000C0E904338361EFF3108E72B6C5F2453131
:10261000016040F2C802DCF80030C2F200422BB187
:1026200011688C69886104F1140201E001460446D6
:102630001060C0E90514581CCCF800008EF3108817
:10264000002010BD000000002DE9F04F81B0DDE951
:102650000A5993460F460446EF22284649469846B3
:10266000DDF838A00C9EFDF7E7FFB0212046FDF70E
:10267000EBFF05EB090004F110010138A76281E8C6
:1026800001060D98E66286423046C4E911B8E5605D
:102690004FF02001C4F81CA018BF0020C4F89460BB
:1026A000E063C4E926010320206342F6494042F278
:1026B000D171C0F60000C0F60001C4E9150420463F
:1026C000FDF73EFF45F24422EFF3108172B6C5F2EA
:1026D0004842226040F20C12C2F2004240F2081757
:1026E0002046C2F20047136843B13E68D6F88C50CA
:1026F000C6F88C0005F1880702E000BF06460546D3
:102700000133136040F210123860C2F200420F9F92
:10271000C0E922651368012F03F1010313601DD185
:1027200040F21002C2F200421268EFF305831A432E
:10273000B2F1F03F22D340F2FC02C2F20042146830
:10274000E4B1E56BE26AE26381F3108800F0E4F83B
:10275000E4B9002001B0BDE8F08F00BF81F310881C
:10276000EFF3108072B611680139116080F31088A0
:1027700000F0AAF8002001B0BDE8F08F0024002589
:1027800081F3108800F0C8F8002CE2D0E563002047
:1027900001B0BDE8F08F0000B0B540F2F804202091
:1027A000C2F2004480210025E06040F25410C2F2E1
:1027B0000040A560C4E90055FDF746FFC4E9045593
:1027C000A561206AE56140F085702062B0BD00001F
:1027D00010B540F2F800C2F200400468D4E91110CC
:1027E000884740F21410C2F20040016809B1204647
:1027F0008847EFF3108072B601212163A1630021A5
:10280000E16440F21011C2F200410A6801320A602C
:1028100080F31088EFF3148020F0040080F3148814
:102820002046BDE8104000F00FB900000000000095
:1028300010B540F2F802EFF31081C2F2004272B616
:1028400014686CB140F21002C2F200421268EFF359
:1028500005831A4308D081F31088132010BD00BFF0
:1028600081F31088132010BD40F25822C2F20042BA
:1028700094420BD070B140F21012C2F200421368C1
:1028800063B181F31088132010BD00BF81F310885D
:10289000132010BD81F31088002010BD0423236392
:1028A0000123A3630023C4F88430E064106801307E
:1028B000106081F31088204600F0C6F8D4F8840038
:1028C00010BD00000000000040F21010C2F20040F5
:1028D000006808B1704700BF40F2F80040F2FC0108
:1028E000C2F20040C2F20041006809688842F1D09B
:1028F0004EF604504FF08051CEF200000160EFF32D
:102900000580002818BF7047EFF3108062B680F38F
:10291000108870470000000070B5EFF3108572B6A4
:102920000446406E002804F14C0003D000F040FA49
:1029300002E000BF0021016040F21010C2F200402E
:10294000016801390160A16B002940F2FC01226B92
:10295000C2F2004108D0013A022A0CD3626B32B9AC
:102960000022A263226306E02AB1626B12B3002246
:102970000323C4E90C3240F2F802C2F200421268AA
:1029800085F3108809688A4201D0006800B170BDE3
:102990004EF604504FF08051CEF200000160EFF38C
:1029A0000580002818BF70BDEFF3108062B680F379
:1029B000108870BDD4F82CE040F2541CC2F2004CD8
:1029C000002222635CF82E3033B15A6A5C621462D2
:1029D000C4E90832CFE700BF4CF82E4040F2041C97
:1029E000C2F2004C40F20013C2F200430122DCF8B4
:1029F000006002FA0EF2B6451E68C4E9084442EAD5
:102A000006021A60B7D20B68CCF800E0D3B1DA6BDB
:102A10009645B0D20C6085F3108800680028B6D1C6
:102A20004EF604504FF08051CEF200000160EFF3FB
:102A300005800028ABD1EFF3108062B680F31088D8
:102A400070BD00BF0C6096E72DE9F04140F2F8013F
:102A5000C2F200410D68EFF3108472B6A84211D1A2
:102A6000014651F84C2F013A12F1030F04D80646E3
:102A7000084600F06DF9304640F22011C269C2F2FA
:102A800000410A6040F2101140F2FC0CC2F2004119
:102A9000C2F2004C0A68013A0A60826B012A18D11E
:102AA000026A4FF0000E8242C36AC0F838E01BD0C1
:102AB000466A40F2541EC2F2004E566232625EF81E
:102AC0002360864201D14EF82320DCF8002090429A
:102AD00027D084F31088DCF80000854202D0086813
:102AE000002843D0BDE8F08140F2001740F25418AE
:102AF000C2F200470126C2F200489E403A68B24343
:102B000048F823E03A6045D040F2041392FAA2F26A
:102B1000C2F20043B2FA82F21A60DCF8002090425E
:102B2000D7D140F2041040F25412C2F20040C2F277
:102B30000042006852F82000CCF8000084F31088AE
:102B400008680028CED14EF604504FF08051CEF2E6
:102B500000000160EFF305800028C3D1EFF310807F
:102B600062B680F31088BDE8F08100BF4EF60450D5
:102B70004FF08051CEF200000160EFF30580002895
:102B800018BFBDE8F081EFF3108062B680F31088C3
:102B9000BDE8F08140F204102022C2F20040026041
:102BA0000020CCF8000084F310880868002899D130
:102BB0004EF604504FF08051CEF200000160EFF36A
:102BC000058000287FF48EAFEFF3108062B680F3AB
:102BD0001088BDE8F081000040F2F80040F22412B5
:102BE000C2F20040C2F2004200230168EFF31080FD
:102BF00072B6136009B10A6B12B180F31088704786
:102C000040F2201CD1E90732C2F2004C8A428B61AB
:102C1000CCF80030F1D0CB6AC96B8B42EDD140F2D9
:102C2000041140F2541CC2F20041C2F2004C096887
:102C30004CF8232040F2FC02C2F200425CF8211062
:102C4000116080F310887047EFF3108272B6016B49
:102C500004290BD140F21011C2F200410B6801337C
:102C60000B6082F31088FFF757BE00BF836ED0F869
:102C7000AC1082F31088002B08BF70471847000083
:102C800040F21011EFF31080C2F2004172B60A68F0
:102C900001320A6080F3108840F25820C2F20040EE
:102CA000FFF73ABE000000002DE9F04387B040F284
:102CB0001C1440F2D816C2F20044C2F20046802131
:102CC000304600252560C4E90155C4E90355FDF7E8
:102CD000BBFC666106F18000A66140F2582842F60E
:102CE000F15644F64D1740F20831C2F200480FF297
:102CF0004809C0F60006C4F25417C2F20041C4E904
:102D000007014FF48060C4E9090500BF04F1200207
:102D10003B46059507CA8DE80700CDE903254046E7
:102D200049463246FFF790FC0028EFD10020C4E965
:102D30000B0007B0BDE8F08353797374656D2054C0
:102D4000696D65722054687265616400000000005E
:102D50000268511E11F1030F26D88369002B18BF9A
:102D60007047202A40F23412C2F2004240F230137F
:102D700088BF1F211268C2F2004302EB810140F2BA
:102D80003812C2F200421B6812688A1A28BF9918CA
:102D90000A682AB1536950611861C0E9042302E04E
:102DA000C0E9040008608161704700000000000075
:102DB0008169002908BF70470269904208D04369C1
:102DC00053611A610B6883420AD000218161704708
:102DD0000A688242F9D100220A60002181617047AD
:102DE00091610A60002181617047000000000000CD
:102DF0002DE9F04F83B044F64D11C4F254118842CE
:102E000040F0948040F2341640F2281440F22C1B1B
:102E1000C2F200460027C2F200440DF10409C2F2DA
:102E2000004B0DF1080804E0206800286AD081F307
:102E30001088EFF3108072B631680A680292002A97
:102E400018BFC2F8188040F238120F60C2F2004278
:102E50003168043131601268914205D140F230117D
:102E6000C2F2004109683160276080F31088EFF3F7
:102E7000108172B605E000BF8AF31088EFF310816D
:102E800072B6029D002DCFD02869002285420192A2
:102E900014D06A694261C0F8188010612A680290F3
:102EA000212A10D3A2F120002860C5F818902D61C6
:102EB0000195CBF8005081F3108815E000202A68B6
:102EC0000290212AEED2D5E90132E8682B601BB1CD
:102ED0004B462D61019500E00023AB61CBF800501B
:102EE00081F3108802B19047EFF3108A72B601980F
:102EF000CBF80070A842BFD12846AF61FFF728FF8A
:102F0000BAE700BF40F2582040F21013C2F200406E
:102F1000C2F2004303220263012282631A68013273
:102F20001A6081F31088FFF78FFD82E703B0BDE8D8
:102F3000F08F00000000000070B578B145F2454EFA
:102F4000D0F800C0C4F2592EF44507D141B11AB1EE
:102F5000D0F81CC0624505D9052070BD022070BDA7
:102F6000032070BD40F2100EC2F2004EF3B1DEF845
:102F700000C0EFF3058444EA0C0540F2F804C2F205
:102F8000004440F25826C2F200464FF0000C24687C
:102F9000B44208BF4FF0130C002D18BF4FF0040CC3
:102FA000BCF1000F0ED0604670BD00BF40F2F80CBF
:102FB00040F25824C2F2004CC2F20044DCF800C0D7
:102FC000A4450DD0DEF80060EFF305852E430BD04D
:102FD000DEF80060EFF305852E43B6F1F03F03D233
:102FE0004FF0130C604670BDBDE87040FEF7A0BE08
:102FF0002DE9F04100284FF0020C00F0B180069F4F
:10300000342F40F0AD8040F2101CEFF31087C2F275
:10301000004C72B640F2EC059846DCF80060C2F253
:1030200000450136CCF8006087F3108840F2E807CD
:10303000C2F200472C681546002C3E68A0EB06073C
:10304000B7FA87F74FEA571718BFB0421AD10646AA
:10305000EFF3108072B60C46DCF800100139CCF8A2
:10306000001080F31088FFF72FFC1FB10220BDE88D
:10307000F08100BFC5B3B8F1640F39D20520BDE8B7
:10308000F08100BF042200BFF36AD71EC61AA74210
:10309000B6FA86F64FEA5617D9D29842D7D0DB6AED
:1030A000971EC61AA742B6FA86F64FEA5617CED230
:1030B0009842CCD0DB6A571EC61AA742B6FA86F6EB
:1030C0004FEA5617C3D29842C1D0DE6AA242A0EBA3
:1030D0000603B3FA83F34FEA5317B8D2B04202F1B2
:1030E0000402D1D1B3E700BF0320BDE8F08100BFE7
:1030F00040F2F8002A46C2F200404346076840F218
:103100001000C2F200400168EFF30585294319D091
:1031100040F258250068C2F20045EFF305814FF0F8
:10312000000C0843AF4208BF4FF0130CB0F1F03F62
:1031300038BF4FF0130C13D330462146AF4209D1AC
:103140000EE000BF40F258202146C2F20040874204
:10315000304603D0BDE8F041FEF7A6BE4FF0130C99
:103160006046BDE8F08100002DE9F04100284FF0F5
:103170001C0C00F09580342B40F0928040F210132C
:10318000EFF31087C2F2004372B690461E68013614
:103190001E6087F3108840F2F007C2F2004740F249
:1031A000F406C2F200463D68471B3468B7FA87F759
:1031B000002C4FEA571618BFA84239D10446EFF346
:1031C000108072B60D4619680139196080F31088B5
:1031D000FFF77AFB16B11C20BDE8F0814246B8F13A
:1031E000010F294656D840F2F80040F25823C2F2A7
:1031F0000040C2F200434FF0000C0068984240F2D9
:103200001003C2F200431868EFF3058708BF4FF0C0
:10321000130C3843204640D01B68EFF305873B432F
:10322000B3F1F03F39D24FF0130C6046BDE8F081A6
:10323000042200BF2D6AD61E471BA642B7FA87F7A5
:103240004FEA5716BAD2A842B8D02D6A971E461B2D
:10325000A742B6FA86F64FEA5616AFD2A842ADD0CC
:103260002D6A571E461BA742B6FA86F64FEA561637
:10327000A4D2A842A2D02D6AA242A0EB0507B7FAB9
:1032800087F74FEA571699D2A84202F10402D1D12A
:1032900094E700BF4FF01F0C2046BCF1000F03D095
:1032A0006046BDE8F08100BFBDE8F041FEF700BF19
:1032B0002DE9F04700284FF0090C00F0B580099F78
:1032C000382F40F0B18040F21014DDF82080C2F2B7
:1032D0000044EFF3108772B6914626689A4601368D
:1032E000266087F3108840F2D007C2F2004740F210
:1032F000D406C2F200463F683568C61BB6FA86F6A9
:10330000002D4FEA561618BFB84247D10546EFF3D5
:10331000108072B60F4621680139216080F3108851
:10332000FFF7D2FA16B10920BDE8F087BAF1000F15
:1033300068D0A9F111004FF0050C10F1100F73D3F4
:103340004FEA98004A4648456ED33946284640F22F
:10335000F80740F21005C2F20047C2F2004553469A
:103360003F682E68EFF3058426434FD040F258267D
:103370002D68C2F20046EFF305844FF0000C2543A0
:10338000B74208BF4FF0130CB5F1F03F38BF4FF014
:10339000130C49D3B7423FD146E000BF042200BF1F
:1033A0003B6BD71EC61AAF42B6FA86F64FEA5616E0
:1033B000ACD29842AAD01B6B971EC61AAF42B6FA7F
:1033C00086F64FEA5616A1D298429FD01B6B571E25
:1033D000C61AAF42B6FA86F64FEA561696D2984209
:1033E0003FF494AF1F6BAA42A0EB0703B3FA83F339
:1033F0004FEA5316BFF48AAFB84202F10402CFD1AC
:1034000084E700BF0320BDE8F08700BF40F25826E4
:10341000C2F20046B74205D0CDF82080BDE8F047A3
:10342000FFF7A2B84FF0130C6046BDE8F08700002C
:103430002DE9F04100284FF00C064DD01C2B4BD14C
:1034400040F21013EFF31087C2F2004372B60D463C
:1034500090461E6801361E6087F3108840F2C80748
:10346000C2F2004740F2CC06C2F200463C68071B9D
:103470003668B7FA87F7002E4FEA571718BFA042F1
:103480002ED10646EFF3108072B619680139196023
:1034900080F31088FFF718FA17B10C20BDE8F0810F
:1034A00040F2F80040F25821C2F20040C2F200415E
:1034B000006888420FD040F21000C2F2004001685C
:1034C000EFF3058211433DD00068EFF30581084317
:1034D000B0F1F03F36D213263046BDE8F08100BF90
:1034E000042100BF6269CF1E841AB742B4FA84F483
:1034F0004FEA5417C5D29042C3D052698F1E841A26
:10350000B742B4FA84F44FEA5417BAD29042B8D012
:1035100052694F1E841AB742B4FA84F44FEA541722
:10352000AFD29042ADD05469B142A0EB0402B2FADE
:1035300082F24FEA5217A4D2A04201F10401D1D184
:103540009FE700BF304629464246BDE8F041FFF7FD
:103550004BB80000000000002DE9F04F83B0044696
:1035600000284FF00E0061D09146129AB02A5DD12A
:10357000119801901098009040F2101C0F98029042
:10358000C2F2004CDDF83880DDE90C6BEFF31080FF
:1035900072B6DCF800200132CCF8002080F31088ED
:1035A00040F20C10C2F20040026840F20810C2F271
:1035B0000040D0F800A01AB306EB0B000025471E10
:1035C000544518BF012D1BD0DAF80C00864203D2F7
:1035D000002587420AD20FE0DAF81050AE424FF0D1
:1035E00000053CBF01250026874205D3DAF810000C
:1035F00087423CBF00260125013ADAF888A0DFD1D6
:10360000EFF3108072B60D46DCF800100139CCF8EB
:10361000001080F310881F46FFF756F9544509D073
:103620000320B9F1000F18BF002E07D103B0BDE889
:10363000F08F00BF0E2003B0BDE8F08FBBF1C80FC4
:1036400004D2052003B0BDE8F08F00BFB8F11F0F12
:1036500004D90F2003B0BDE8F08F00BF02984045A9
:1036600004D9182003B0BDE8F08F00BF01980128ED
:1036700004D9102003B0BDE8F08F00BF40F2F8007D
:103680003B46C2F200402946026840F21000C2F2F6
:1036900000400768EFF305852F4313D040F2582C04
:1036A0000568C2F2004CEFF3058700202F43624506
:1036B00008BF1320B7F1F03F38BF1320B6D36245DF
:1036C00006D1B3E740F25820C2F2004082420FD048
:1036D000019811900098109002984A46CDE90E800A
:1036E000CDE90C6B204603B0BDE8F04FFEF7ACBF50
:1036F000132003B0BDE8F08F86B04FF00108CDF87D
:103700000480FDF77DFA48F21F70039040F201102B
:10371000049001A800270297FDF742FA0420FDF764
:103720007FFAFDF7B9F9FEF75BF944F2E04005973F
:10373000C5F6020040F60044CDE90377CDE90177F4
:103740000168C5F6020441F08001016001680022B1
:1037500001F0800100910099016841F008010160C9
:1037600001684FF4805601F008010091009901684A
:1037700041F040010160016801F0400100910099B1
:10378000016841F00101016000684FF4805100F0D0
:103790000100009000982046FDF75EF904F54065B1
:1037A0008021002228464FF08009FDF755F9CDE928
:1037B000016801AE20463146CDE90377FDF770F888
:1037C00028463146CDE90198CDE90377FDF768F841
:1037D000FEF7FAF8FEE700003220FFF729F8FBE7D2
:1037E00080B582B040F2547040F67002C2F20040E0
:1037F0000BA1C2F200424FF480634FF0340CCDF8BD
:1038000000C0FFF7F5FB08B102B080BD40F2547074
:10381000C2F20040FCF7A0FF0028F5D0FEE700BF91
:10382000547820417070206D656D6F727920706FD3
:103830006F6C0000F1EE100A4FF6FF71C0F2C0315C
:1038400020EA010040F04070E1EE100A70470000ED
:103850000000010203040102030406070809000036
:103860008038000800000024180000003003000821
:103870009838000818000024601200005003000867
:1038800001000000100000000090D0030090D00361
:08389000F0F0F0F00000000070
:04000005080002CD20
:00000001FF
