:020000040800F2
:100000007812002499030008C1280008612700081D
:10001000B928000859080008492D00080000000010
:10002000000000000000000000000000AF03000816
:100030006108000800000000AD0400086504000825
:10004000B7030008B7030008B7030008B7030008A8
:10005000B7030008B7030008B7030008B703000898
:10006000B7030008B7030008B7030008B703000888
:10007000B7030008B7030008B7030008B703000878
:10008000B7030008B7030008B7030008B703000868
:10009000B7030008B7030008B7030008B703000858
:1000A000B7030008B7030008B7030008B703000848
:1000B000B7030008B7030008B7030008B703000838
:1000C000B7030008B7030008B7030008B703000828
:1000D000B7030008B7030008B7030008B703000818
:1000E000B7030008B703000800000000B7030008CA
:1000F000B7030008B7030008B7030008B7030008F8
:10010000B7030008B7030008B7030008B7030008E7
:10011000B7030008B7030008B7030008B7030008D7
:10012000B7030008B7030008B7030008B7030008C7
:10013000B7030008B7030008B7030008B7030008B7
:1001400000000000000000000000000000000000AF
:10015000B7030008B7030008B7030008B703000897
:10016000B7030008B7030008B7030008B703000887
:10017000B7030008B7030008B70300080000000039
:10018000B7030008B7030008B7030008B703000867
:10019000B7030008B7030008B7030008B703000857
:1001A000B7030008B7030008B70300080000000009
:1001B000B7030008B7030008B7030008B703000837
:1001C000B7030008B70300080000000000000000AB
:1001D0000000000000000000B7030008000000005D
:1001E000000000000000000000000000000000000F
:1001F0000000000000000000B7030008B70300087B
:10020000B7030008B703000800000000B7030008A8
:10021000B7030008B7030008B7030008B7030008D6
:10022000B703000800000000B7030008000000004A
:10023000B7030008B703000800000000B703000878
:10024000B7030008B7030008B7030008B7030008A6
:10025000B7030008B7030008B7030008B703000896
:10026000B7030008B7030008B7030008B703000886
:10027000B7030008B7030008B70300080000000038
:10028000B7030008B7030008B7030008B703000866
:1002900000000000B7030008B703000800000000DA
:1002A00000000000B7030008B7030008B703000808
:1002B000B7030008B7030008B7030008B703000836
:1002C000B7030008712B0008B703000800F002F81C
:1002D00000F052F814A696E8000CB244B344DA4594
:1002E00001D100F049F8BAE80F000FA696E83000F7
:1002F000A5EB040504EB0607AAEB0704A7F1010729
:100300004FEA15154FEA3414A4F10104AC4201D3AD
:1003100000F032F813F0010F18BFFB1A43F001038D
:1003200000F001F8DBE718472C5600004C5600009F
:10033000103A24BF78C878C1FAD8520724BF30C811
:1003400030C144BF04680C60704700007047000073
:100350000023002400250026103A28BF78C1FBD8CE
:10036000520728BF30C148BF0B6070471FB505F06A
:10037000ABFA1FBD10B510BD00F0B2F91146FFF782
:10038000F5FF05F055FA00F0D0F903B4FFF7F2FFDE
:1003900003BC00F0D7F900000A4880470A488047AC
:1003A0000A480047FEE7FEE7FEE7FEE7FEE7FEE756
:1003B000FEE7FEE7FEE7FEE705480649064A074B6B
:1003C0007047000079080008092A0008CD020008DB
:1003D000780C002478120024780E0024780E002473
:1003E0000000000850010024001000E0BF3B47035C
:1003F0000000FF4000BF00BF00BF00BF00BF00BF44
:1004000072B64FF0E0205FF82810C0F8081D5FF8C2
:100410002C005FF83410096801605FF8340001684F
:1004200041F0010101604FF0E0205FF840104161B0
:100430004FF0070101614FF00001C0F8181D4FF0A7
:100440007F41C0F81C1D5FF85810C0F8201D704790
:10045000FFF7FEBFFFF7FEBFFFF7FEBF01B5BDE828
:100460000140704701B500F08BF8BDE801407047CE
:10047000FFF7FEBFFFF7FEBF000000000000000016
:100480004FF000002A4A1060EFF3148020F00400BF
:1004900080F3148862B64FF080504FF0E021C1F82D
:1004A000040DBFF34F8FBFF36F8FFEE72148224A41
:1004B0004FF00003016891B10360EFF3098C2CE960
:1004C000F00F1EF0100F01D12CED108A1B4C4CF8D0
:1004D00004ED2568C1F808C00DB18D61236072B6C6
:1004E0001168B1B1016062B64F68144C8D6907F1B3
:1004F00001074F602560D1F808C05CF804EB1EF0DE
:10050000100F01D1BCEC108ABCE8F00F8CF3098805
:10051000704772B61168016009B962B6F9E74FF029
:1005200000674FF0E028C8F8047D62B6DCE770474A
:10053000C8000024B8000024BC000024B406002435
:10054000026922F00702A2F144026FF00203136075
:100550004FF0000353609360D36013615361936164
:10056000D361136253629362D362136353634FF098
:10057000FF339363D1634FF08073136482607047DD
:100580002249086800F101000860214B1A683AB15D
:10059000A2F101021A601AB91E4B4FF00100186057
:1005A0001D490868026822B11C4B4FF001021A6015
:1005B00008E000F104001A4B1A68904201D1194B6F
:1005C00018680860134B1A6812B914490868D0B14A
:1005D0002DE901401149086808B104F011FA0D4BEA
:1005E0001A6872B104F07CF90F48016849B90F48E4
:1005F00001680F4A13680F484FF08052994200D0AB
:100600000260BDE80140BFF34F8F70470002002435
:10061000B4060024640100245C010024600100246D
:10062000EC010024F0010024C8000024B8000024DC
:10063000BC00002404ED00E002F0FF0343EA0322C3
:1006400042EA024200F02CB84FF0000200B5134617
:1006500094469646203922BFA0E80C50A0E80C50E2
:10066000B1F12001BFF4F7AF090728BFA0E80C5093
:1006700048BF0CC05DF804EB890028BF40F8042B8C
:1006800008BF704748BF20F8022B11F0804F18BFF9
:1006900000F8012B70477047704770474FF0000219
:1006A0000429C0F0128010F0030C3FF4CFAFCCF15E
:1006B000040CBCF1020F18BF00F8012BA8BF20F8F2
:1006C000022BA1EB0C01FFF7C1BF5FEAC17C24BF85
:1006D00000F8012B00F8012B48BF00F8012B7047F0
:1006E000754600F02BF8AE4605006946534620F0EB
:1006F0000700854618B020B5FFF75EFEBDE8204034
:100700004FF000064FF000074FF000084FF0000BCD
:10071000AC46ACE8C009ACE8C009ACE8C009ACE83C
:10072000C00921F007018D46704710B50446AFF3AC
:1007300000802046BDE81040FFF727BE0048704704
:100740001800002401491820ABBEFEE72600020075
:10075000704700000000000080B58CB00A900023B4
:1007600009930A980890089807A94FF4007204F0BA
:10077000A7FB18B1FFE702200B9067E007986946D6
:10078000B0228A6101224A6100230B610A22CA60F9
:100790008A604FF400724A60086040F2C070C2F292
:1007A000004045F6F201C0F6000145F65102C0F6E0
:1007B000000204F009FF18B1FFE70E200B9045E09E
:1007C000089807A90422002304F07AFB18B1FFE778
:1007D00002200B903AE0079B6946382048600420CD
:1007E000086040F23870C2F2004045F61111C0F6C0
:1007F0000001012204F068FD18B1FFE709200B9009
:1008000024E040F2A470C2F2004045F60011C0F6A8
:10081000000100221C2304F02BFE18B1FFE70C207E
:100820000B9013E040F27070C2F2004045F61E11CA
:10083000C0F600010022342304F08EFC18B1FFE75B
:100840001C200B9002E009980B90FFE70B980CB06E
:1008500080BD000000000000FFE7FEE70000000090
:10086000704700000000000081B0EFF3108072B606
:100870000090FFE7FEE7000044F60C01C5F6020118
:10088000086840F002000860FFE744F60400C5F67F
:10089000020000688004002801D4FFE7F5E77047F4
:1008A0008FB00E900D9100200C908020C5F60000B6
:1008B0000990FFE70D9800680C99C840002800F0E7
:1008C000C181FFE70D9800680C9A01219140084012
:1008D0000B900B98002800F0B181FFE70D9840685D
:1008E00000F00300012807D0FFE70D98406800F0F2
:1008F000030002282FD1FFE70E9880680A900C9819
:100900004100032000FA01F10A9888430A900D98EB
:10091000C0680C99490000FA01F10A9808430A904E
:100920000A980E9988600E9840680A900C990120E8
:1009300000FA01F10A9888430A900D984068C0F3C4
:1009400000100C9900FA01F10A9808430A900A98DD
:100950000E994860FFE70D98406800F003000328F7
:1009600018D0FFE70E98C0680A900C984100032049
:1009700000FA01F10A9888430A900D9880680C9952
:10098000490000FA01F10A9808430A900A980E9962
:10099000C860FFE70D98406800F00300022826D1E8
:1009A000FFE70E980C996FF0030202EA5101084428
:1009B000006A0A900C9800F0070081000F2000FAEE
:1009C00001F10A9888430A900D9800690C9901F08A
:1009D0000701890000FA01F10A9808430A900A9871
:1009E0000E990C9B02EA530211440862FFE70E982D
:1009F00000680A900C984100032000FA01F10A985F
:100A000088430A900D98406800F003000C99490053
:100A100000FA01F10A9808430A900A980E990860B2
:100A20000D9880798007002800F00781FFE7FFE735
:100A300044F2F440C5F60200016841F00201016091
:100A4000006800F0020008900898FFE70C9820F07A
:100A5000030040F20841C5F6000140580A900C9886
:100A600000F0030081000F2000FA01F10A9888438A
:100A70000A900E980021C5F60201884203D1FFE7D3
:100A8000002007906CE00E9840F20041C5F602018C
:100A9000884203D1FFE7012006905EE00E9840F601
:100AA0000001C5F60201884203D1FFE7022005904C
:100AB00050E00E9840F60041C5F60201884203D18D
:100AC000FFE70320049042E00E9841F20001C5F6D2
:100AD0000201884203D1FFE70420039034E00E981E
:100AE00041F20041C5F60201884203D1FFE705202B
:100AF000029026E00E9841F60001C5F602018842F8
:100B000003D1FFE70620019018E00E9841F600415E
:100B1000C5F60201884203D1FFE7072000900AE0F2
:100B20000E9942F20042C5F602020A20914208BF25
:100B300009200090FFE700980190FFE701980290DC
:100B4000FFE702980390FFE703980490FFE70498FB
:100B50000590FFE705980690FFE706980790FFE7E6
:100B600007980C9901F00301890000FA01F10A9835
:100B700008430A900A980C9921F0030140F20842B8
:100B8000C5F6000288504FF0B04000680A900B99FB
:100B90000A9888430A900D988079C006002805D5E8
:100BA000FFE70B990A9808430A90FFE70A984FF06D
:100BB000B04108600420C5F6000000680A900B9957
:100BC0000A9888430A900D9880798006002805D5F8
:100BD000FFE70B990A9808430A90FFE70A98042157
:100BE000C5F600010860099840680A900B990A98B8
:100BF00088430A900D9880798007002805D5FFE783
:100C00000B990A9808430A90FFE70A9809994860E7
:100C1000099800680A900B990A9888430A900D98E1
:100C20008079C00728B1FFE70B990A9808430A901A
:100C3000FFE70A9809990860FFE7FFE70C98013081
:100C40000C9037E60FB0704783B00290ADF80610F5
:100C5000029840690090009ABDF8060002EA00017F
:100C6000904340EA01400299886103B07047000058
:100C700082B00190ADF802108DF801209DF80100BE
:100C800028B1FFE7BDF802000199886105E0BDF8D1
:100C90000200000401998861FFE702B0704700007C
:100CA00040F67040C2F2004000687047000000004B
:100CB00040F20C00C2F20040027840F67041C2F2ED
:100CC0000041086810440860704700000000000000
:100CD00080B582B0032000F043F900F06DFC44F2CF
:100CE0001842C5F602021168C1F3032345F6E2017A
:100CF000C0F60001CB5C03F01F03D84000900098C1
:100D0000126802F00F02895C01F01F01C84040F236
:100D10000401C2F200410860009840F20001C2F2F2
:100D2000004108600F2000F013F820B1FFE7012018
:100D30008DF8070005E000F0DBF800208DF80700D3
:100D4000FFE79DF8070002B080BD00000000000032
:100D500080B590B00E900E980F2810D8FFE70E992E
:100D6000A1200190002200F0E3F8019800F0D4F8EF
:100D70000E9840F21001C2F20041086003E0012029
:100D80008DF83F0044E0FFE744F2EC40C5F6020076
:100D9000016841F080710160006800F0807002908D
:100DA0000298FFE706A803A900F082FB00F0F0FB21
:100DB0004000059005984DF68361C4F21B31A0FBFD
:100DC00001014FF0FF3000EB9140049040F2B86019
:100DD000C2F200404EF20001C4F20001016040F294
:100DE000E731C1600499416000210161816001F037
:100DF0007FFA48B9FFE740F2B860C2F2004001F064
:100E0000CFFA8DF83F0003E001208DF83F00FFE7A7
:100E10009DF83F0010B080BD10B581B000900098E3
:100E200040784EF69851CEF2000108604EF6A0517F
:100E3000CEF20001086820F00100086000984068C8
:100E40004EF69C52CEF200021060DDF800E09EF8F3
:100E50000C0000079EF80B2040EA02609EF800207C
:100E60009EF808309EF809C09EF80A4040EAC44047
:100E70009EF80D4040EA84409EF80E4040EA44400F
:100E80009EF80FE040EA0E4040EA0C2040EA4300A2
:100E90001043086001B010BDBFF35F8F4EF62451C0
:100EA000CEF20001086820F4803008604EF69451BC
:100EB000CEF2000100200860704700000000000032
:100EC00081B00090009840F001004EF69451CEF2AF
:100ED000000108604EF62451CEF20001086840F48B
:100EE00080300860BFF34F8FBFF36F8F01B0704742
:100EF00081B0FFE744F2F440C5F60200016841F01A
:100F000002010160006800F0020000900098FFE715
:100F100001B070470000000080B582B0ADF8060057
:100F2000BDF9060001F014FF02B080BD0000000012
:100F300080B586B0ADF816000491039201F020FF51
:100F40000290BDF91600019002980499039A01F0ED
:100F5000BBFC0146019801F01BFF06B080BD0000FC
:100F600080B582B00190019801F036FF02B080BDDB
:100F700080B584B0029044F60C00C5F6020000680B
:100F800000F004010020B0EB910F13D1FFE744F60D
:100F90000C00C5F60200006800F0070002998842C4
:100FA00004D0FFE701208DF80F002EE000208DF81F
:100FB0000F002AE044F60C01C5F60201086820F093
:100FC0000700029A10430860FFF76AFE0190FFE7EE
:100FD00044F60400C5F60200006800F40051002049
:100FE000B0EB513F0DD1FFE7FFF75AFE0199401AD0
:100FF000B0F57A7F04D9FFE701208DF80F0004E0F7
:10100000E6E700208DF80F00FFE79DF80F0004B021
:1010100080BD00000000000080B586B00490039100
:10102000049820B9FFE701208DF817003CE20398EF
:1010300042F20001C5F20021096801F00F01884267
:1010400016D9FFE742F20000C5F20020016821F046
:101050000F01039A11430160006800F00F0003992B
:10106000884204D0FFE701208DF817001CE2FFE75B
:10107000049800784007002819D5FFE70498006914
:1010800044F21841C5F60201096801F07001884276
:101090000CD9FFE744F21841C5F60201086820F0B8
:1010A0007000049A126910430860FFE7FFE7049894
:1010B00000780007002819D5FFE70498406944F23A
:1010C0001C41C5F60201096801F0700188420CD983
:1010D000FFE744F21C41C5F60201086820F07000E9
:1010E000049A526910430860FFE7FFE7049800780C
:1010F000C006002819D5FFE70498806944F21C4116
:10110000C5F60201096801F4E06188420CD9FFE7E5
:1011100044F21C41C5F60201086820F4E060049A1C
:10112000926910430860FFE7FFE7049800788006A3
:10113000002819D5FFE70498C06944F22041C5F69C
:101140000201096801F0700188420CD9FFE744F2FE
:101150002041C5F60201086820F07000049AD269A7
:1011600010430860FFE7FFE7049800788007002835
:1011700019D5FFE70498C06844F21841C5F602018A
:10118000096801F00F0188420CD9FFE744F21841C9
:10119000C5F60201086820F00F00049AD2681043D7
:1011A0000860FFE7FFE704980078C007002800F018
:1011B0008C80FFE744F21841C5F60201086820F46C
:1011C0007060049A9268104308600498406802288E
:1011D00011D1FFE744F20040C5F60200006800F4B8
:1011E00000310020B0EB514F04D1FFE701208DF812
:1011F000170059E13EE004984068032811D1FFE749
:1012000044F20040C5F60200006800F000710020C2
:10121000B0EB516F04D1FFE701208DF8170043E1D7
:1012200027E004984068012811D1FFE744F200400C
:10123000C5F60200006800F480710020B0EB112FA9
:1012400004D1FFE701208DF817002DE110E044F2F2
:101250000040C5F60200006800F004010020B0EB79
:10126000910F04D1FFE701208DF817001CE1FFE783
:10127000FFE7FFE744F21041C5F60201086820F0DD
:101280000700049A526810430860FFF709FD0190B7
:10129000FFE744F21040C5F60200006800F0380095
:1012A00004994968B0EBC10F0ED0FFE7FFF7F8FCD7
:1012B0000199401A41F28931884204D3FFE70320A3
:1012C0008DF81700F0E0E4E7FFE704980078800766
:1012D000002819D5FFE70498C06844F21841C5F604
:1012E0000201096801F00F0188420CD2FFE744F2C5
:1012F0001841C5F60201086820F00F00049AD26870
:1013000010430860FFE7FFE7039842F20001C5F2CF
:101310000021096801F00F01884216D2FFE742F26E
:101320000000C5F20020016821F00F01039A11436B
:101330000160006800F00F000399884204D0FFE7C5
:1013400001208DF81700AFE0FFE704980078400710
:10135000002819D5FFE70498006944F21841C5F642
:101360000201096801F0700188420CD2FFE744F2E3
:101370001841C5F60201086820F07000049A12694D
:1013800010430860FFE7FFE7049800780007002893
:1013900019D5FFE70498406944F21C41C5F60201E3
:1013A000096801F0700188420CD2FFE744F21C4149
:1013B000C5F60201086820F07000049A52691043D3
:1013C0000860FFE7FFE704980078C006002819D5F9
:1013D000FFE70498806944F21C41C5F602010968E0
:1013E00001F4E06188420CD2FFE744F21C41C5F6EB
:1013F0000201086820F4E060049A926910430860D2
:10140000FFE7FFE7049800788006002819D5FFE77A
:101410000498C06944F22041C5F60201096801F050
:10142000700188420CD2FFE744F22041C5F6020168
:10143000086820F07000049AD26910430860FFE742
:10144000FFE700F0B9F844F21842C5F6020211684D
:10145000C1F3032345F6E201C0F60001CB5C03F0C3
:101460001F03D84000900098126802F00F02895CB8
:1014700001F01F01C84040F20401C2F200410860BF
:10148000009840F20001C2F20041086040F21000F2
:10149000C2F200400068FFF75BFC8DF80B009DF87E
:1014A0000B008DF81700FFE79DF8170006B080BD10
:1014B00082B00190009101993F20086044F21040F1
:1014C000C5F60200006800F007000199486044F288
:1014D0001840C5F60200016801F47061019A91603C
:1014E000016801F00F01019AD160006800F07000FE
:1014F0000199086144F21C40C5F60200016801F040
:101500007001019A5161006800F4E06001998861FE
:1015100044F22040C5F60200006800F07000019916
:10152000C86142F20000C5F20020006800F00F0020
:101530000099086002B0704780B582B000F03CF8B6
:1015400044F21842C5F602021168C1F3032345F6BE
:10155000E201C0F60001CB5C03F01F03D84001900C
:101560000198126802F00F02895C01F01F0120FA55
:1015700001F140F20400C2F200400160019940F222
:101580000002C2F200421160006802B080BD00009B
:1015900080B5FFF7D1FF44F21C41C5F6020109688E
:1015A000C1F3022245F6E201C0F60001895C01F0B8
:1015B0001F01C84080BD00008AB044F21040C5F64B
:1015C0000200006800F0380001460191182800F27E
:1015D0005F810199DFE811F019005C015C015C0199
:1015E0005C015C015C015C013A005C015C015C0136
:1015F0005C015C015C015C0140005C015C015C0120
:101600005C015C015C015C01460044F20040C5F6EF
:101610000200006800F020010020B0EB511F0ED046
:10162000FFE744F20040C5F602000068C0F3C101C4
:1016300049F20000C0F2D030C840029005E049F203
:101640000000C0F2D0300290FFE727E140F6001022
:10165000C0F23D00029021E147F64000C0F27D104B
:1016600002901BE144F22840C5F60200016801F037
:10167000030108910068C0F30510079044F22C4064
:10168000C5F60200006800F001000690069844F2DA
:101690003441C5F60201096889B2C908484300EE21
:1016A000100AB8EE400A8DED040A0798002800F0F1
:1016B000EB80FFE70898009048B1FFE70098012809
:1016C00065D0FFE70098022800F08380A3E044F291
:1016D0000040C5F60200006800F020010020B0EBD9
:1016E000511F31D0FFE744F20040C5F60200006808
:1016F000C0F3C10149F20000C0F2D030C8400590EB
:101700009DED050AB8EE400A9DED071AB8EE411AA4
:1017100080EE010A44F23040C5F6020000686FF323
:101720005F2001EE100AB8EE411A9DED042A9FEDEC
:101730005E3A02EE031AB7EE002A31EE021A20EEEC
:10174000010A8DED030A21E09DED070AB8EE401A6B
:101750009FED570A80EE010A44F23040C5F60200C0
:1017600000686FF35F2001EE100AB8EE411A9DED9C
:10177000042A9FED4D3A02EE031AB7EE002A31EE2D
:10178000021A20EE010A8DED030AFFE765E09DEDE8
:10179000070AB8EE401A9FED450A80EE010A44F2AE
:1017A0003040C5F6020000686FF35F2001EE100ABA
:1017B000B8EE411A9DED042A9FED3B3A02EE031A62
:1017C000B7EE002A31EE021A20EE010A8DED030A6F
:1017D00043E09DED070AB8EE401A9FED320A80EE15
:1017E000010A44F23040C5F6020000686FF35F2042
:1017F00001EE100AB8EE411A9DED042A9FED2A3A37
:1018000002EE031AB7EE002A31EE021A20EE010AA8
:101810008DED030A21E09DED070AB8EE401A9FED19
:10182000230A80EE010A44F23040C5F60200006847
:101830006FF35F2001EE100AB8EE411A9DED042A05
:101840009FED193A02EE031AB7EE002A31EE021AA2
:1018500020EE010A8DED030AFFE744F23040C5F6A1
:101860000200006881B2012000EB512009909DED3B
:10187000030A9DED091AB8EE411A80EE010ABCEE8A
:10188000C00A8DED020A02E000200290FFE705E0A9
:1018900040F60010C0F23D000290FFE702980AB047
:1018A000704700BF20BCBE4B000000390024744AC2
:1018B0000024744C0000000080B58CB00A900A9897
:1018C00028B9FFE701208DF82F0000F001BD0A982C
:1018D0000078C007002800F0B980FFE744F210400C
:1018E000C5F60200006800F03800069044F2284077
:1018F000C5F6020000680590069810280AD0FFE798
:10190000069818281CD1FFE7059800F0030002286C
:1019100016D1FFE744F20040C5F60200006800F46B
:1019200000310020B0EB514F09D0FFE70A98406822
:1019300028B9FFE701208DF82F0000F0C9BC84E032
:10194000FFE70A984068B0F5803F09D1FFE744F20D
:101950000041C5F60201086840F48030086032E0BA
:101960000A98406868B9FFE744F20041C5F60201F1
:10197000086820F480300860086820F4802008603F
:1019800020E00A984068B0F5A02F0DD1FFE744F29F
:101990000041C5F60201086840F48020086008682C
:1019A00040F4803008600CE044F20041C5F60201CA
:1019B000086820F480300860086820F480200860FF
:1019C000FFE7FFE7FFE7FFE70A984068F0B1FFE7AE
:1019D000FFF766F90990FFE744F20040C5F6020000
:1019E000006800F400310020B0EB514F0DD1FFE74B
:1019F000FFF756F90999401A652805D3FFE7032038
:101A00008DF82F0000F064BCE6E71DE0FFF748F911
:101A10000990FFE744F20040C5F60200006800F4B8
:101A200000310020B0EB514F0DD0FFE7FFF738F940
:101A30000999401A652805D3FFE703208DF82F0088
:101A400000F046BCE6E7FFE7FFE7FFE70A9800780B
:101A50008007002840F1C580FFE744F21040C5F63A
:101A60000200006800F03800049044F22840C5F6F7
:101A7000020000680390049850B1FFE7049818280A
:101A800050D1FFE79DF80C00800700284AD1FFE7FE
:101A900044F20040C5F60200006800F00401002096
:101AA000B0EB910F09D0FFE70A98C06828B9FFE7AB
:101AB00001208DF82F0000F00BBC44F20041C5F668
:101AC0000201086820F019000A9AD26810430860E1
:101AD000FFF7E6F80990FFE744F20040C5F6020080
:101AE000006800F004010020B0EB910F0CD1FFE77B
:101AF000FFF7D6F80999401A032804D3FFE703201B
:101B00008DF82F00E4E3E7E744F20441C5F6020153
:101B1000086820F0FE400A9A126940EA02600860F4
:101B2000FFE75DE00A98C068A0B3FFE744F2004118
:101B3000C5F60201086820F019000A9AD26810431D
:101B40000860FFF7ADF80990FFE744F20040C5F6E2
:101B50000200006800F004010020B0EB910F0CD1EE
:101B6000FFE7FFF79DF80999401A032804D3FFE720
:101B700003208DF82F00ABE3E7E744F20441C5F6FC
:101B80000201086820F0FE400A9A126940EA0260E9
:101B9000086024E044F20041C5F60201086820F024
:101BA00001000860FFF77CF80990FFE744F200406D
:101BB000C5F60200006800F004010020B0EB910FB0
:101BC0000CD0FFE7FFF76CF80999401A032804D3FB
:101BD000FFE703208DF82F007AE3E7E7FFE7FFE751
:101BE000FFE70A980078C006002840F1A080FFE7D0
:101BF00044F21040C5F60200006800F03800029080
:101C000044F22840C5F602000068019002980828B6
:101C10000AD0FFE7029818282BD1FFE7019800F0BF
:101C20000300012825D1FFE744F20040C5F6020079
:101C3000006800F480710020B0EB112F09D0FFE79D
:101C40000A98C069802804D0FFE701208DF82F0092
:101C50003EE3FFE744F20C41C5F60201086820F0BC
:101C60007C500A9A126A40EA02600860FFE7FFE7C8
:101C70005CE00A98C06998B3FFE744F20041C5F6FA
:101C80000201086840F080000860FFF709F8099039
:101C9000FFE744F20040C5F60200006800F48071DE
:101CA0000020B0EB112F0CD1FFE7FEF7F9FF0999E7
:101CB000401A032804D3FFE703208DF82F0007E321
:101CC000E7E7FFE744F20C41C5F60201086820F09F
:101CD0007C500A9A126A40EA02600860FFE724E03A
:101CE00044F20041C5F60201086820F08000086057
:101CF000FEF7D6FF0990FFE744F20040C5F6020068
:101D0000006800F480710020B0EB112F0CD0FFE7C9
:101D1000FEF7C6FF0999401A032804D3FFE7032002
:101D20008DF82F00D4E2E7E7FFE7FFE7FFE70A9827
:101D30000078000700284FD5FFE70A98406928B3CC
:101D4000FFE744F27441C5F60201086840F0010063
:101D50000860FEF7A5FF0990FFE744F27440C5F65E
:101D60000200006800F002010020B0EB510F0CD11E
:101D7000FFE7FEF795FF0999401A032804D3FFE710
:101D800003208DF82F00A3E2E7E724E044F274413A
:101D9000C5F60201086820F001000860FEF780FF28
:101DA0000990FFE744F27440C5F60200006800F0B5
:101DB00002010020B0EB510F0CD0FFE7FEF770FFDF
:101DC0000999401A032804D3FFE703208DF82F0058
:101DD0007EE2E7E7FFE7FFE70A9800788006002841
:101DE0004FD5FFE70A98806928B3FFE744F2004126
:101DF000C5F60201086840F480500860FEF750FF05
:101E00000990FFE744F20040C5F60200006800F4C4
:101E100000510020B0EB513F0CD1FFE7FEF740FF2F
:101E20000999401A032804D3FFE703208DF82F00F7
:101E30004EE2E7E724E044F20041C5F602010868FB
:101E400020F480500860FEF72BFF0990FFE744F272
:101E50000040C5F60200006800F400510020B0EB1D
:101E6000513F0CD0FFE7FEF71BFF0999401A0328EA
:101E700004D3FFE703208DF82F0029E2E7E7FFE70F
:101E8000FFE70A9800784007002840F1A780FFE7A5
:101E900044F60001C5F60201086840F4807008604D
:101EA000FEF7FEFE0990FFE744F60000C5F60200CB
:101EB0000068C00500280CD4FFE7FEF7F1FE099981
:101EC000401A652804D3FFE703208DF82F00FFE1B7
:101ED000EAE7FFE70A988068012809D1FFE744F2A2
:101EE0007041C5F60201086840F00100086031E069
:101EF0000A98806868B9FFE744F27041C5F60201AC
:101F0000086820F001000860086820F004000860FC
:101F10001FE00A98806805280DD1FFE744F2704160
:101F2000C5F60201086840F004000860086840F047
:101F3000010008600CE044F27041C5F60201086837
:101F400020F001000860086820F004000860FFE746
:101F5000FFE7FFE7FFE70A988068F8B1FFE7FEF7C1
:101F60009FFE0990FFE744F27040C5F6020000684A
:101F700000F002010020B0EB510F0ED1FFE7FEF799
:101F80008FFE0999401A41F28931884204D3FFE754
:101F900003208DF82F009BE1E5E71EE0FEF780FEB1
:101FA0000990FFE744F27040C5F60200006800F0B7
:101FB00002010020B0EB510F0ED0FFE7FEF770FEDC
:101FC0000999401A41F28931884204D3FFE703207E
:101FD0008DF82F007CE1E5E7FFE7FFE70A98406A0C
:101FE000002800F07181FFE744F21040C5F60200BE
:101FF000006800F03800182800F0E080FFE70A9839
:10200000406A022840F0B480FFE744F20041C5F680
:102010000201086820F080700860FEF741FE099018
:10202000FFE744F20040C5F60200006800F00071CE
:102030000020B0EB516F0CD0FFE7FEF731FE09999D
:10204000401A032804D3FFE703208DF82F003FE157
:10205000E7E7FFE744F22841C5F60201086840F2CD
:10206000F33290430A9B9A6ADB6A42EA03121043F6
:1020700008600A99086BD1F834C08B6BCA6B0138C1
:102080006FF35F204FF60061CFF6FF7101EB4C213B
:1020900089B208440021CFF6FF7101EB034101F43E
:1020A000FE0108444FF07F4101EB026101F0FE4167
:1020B000084444F23041C5F602010860FFE744F2EB
:1020C0002C41C5F602010091086820F0010008606B
:1020D00044F23442C5F6020210684FF6F873984392
:1020E0000A9B9B6C40EAC3001060086820F00C005B
:1020F0000A9A126C10430860086820F002000A9ADD
:10210000526C10430860086840F48030086008682A
:1021100040F400300860086840F4802008600868D7
:1021200040F00100086044F20041C5F60201086871
:1021300040F080700860FEF7B3FD0990FFE744F2BD
:102140000040C5F60200006800F000710020B0EB0E
:10215000516F0CD1FFE7FEF7A3FD0999401A032840
:1021600004D3FFE703208DF82F00B1E0E7E724E078
:1021700044F20041C5F60201086820F08070086052
:10218000FEF78EFD0990FFE744F20040C5F602001D
:10219000006800F000710020B0EB516F0CD0FFE739
:1021A000FEF77EFD0999401A032804D3FFE70320B8
:1021B0008DF82F008CE0E7E7FFE784E044F2284049
:1021C000C5F602000068089044F23040C5F60200EF
:1021D000006807900A98406A012837D0FFE70898FE
:1021E00000F003000A99896A88422FD1FFE7089816
:1021F00000F47C710A98C06AB0EB111F26D1FFE78A
:1022000007986FF35F200A99096B013988421DD145
:10221000FFE7BDF81C100A98406B0138B0EB512F56
:1022200014D1FFE7079800F4FE010A98806B01388B
:10223000B0EB114F0AD1FFE7079800F0FE410A9872
:10224000C06B0138B0EB116F04D0FFE701208DF8AF
:102250002F003DE044F23440C5F60200006880B231
:10226000C00808900A98806C0899884229D0FFE736
:1022700044F22C41C5F60201086820F00100086014
:10228000FEF70EFD0990FFE7FEF70AFD0999401AD7
:1022900008B9FFE7F8E744F23441C5F602010868DF
:1022A0004FF6F87290430A9A926C40EAC2000860B6
:1022B00044F22C41C5F60201086840F001000860B4
:1022C000FFE7FFE7FFE7FFE700208DF82F00FFE7BC
:1022D0009DF82F000CB080BD81B0009001B0704718
:1022E00081B0009001B0704781B0009001B070479C
:1022F00080B582B00090009820B9FFE701208DF8EA
:10230000070045E0009890F83D0040B9FFE70099CC
:10231000002081F83C00009800F03EF8FFE70099AB
:10232000022081F83D00009951F8040B00F028FCD0
:102330000099012081F84800FFE70099012081F809
:102340003E00009981F83F00009981F84000009913
:1023500081F84100009981F84200009981F843001A
:10236000FFE7FFE70099012081F84400009981F818
:102370004500009981F84600009981F84700FFE781
:102380000099012081F83D0000208DF80700FFE74B
:102390009DF8070002B080BD81B0009001B0704789
:1023A00083B00190019890F83D00012804D0FFE728
:1023B00001208DF80B0083E00199022081F83D0097
:1023C00001980168C86840F00100C8600198006881
:1023D0000021C4F2010188424ED0FFE70198006855
:1023E000B0F1804F48D0FFE70198006840F200410B
:1023F000C4F2000188423FD0FFE70198006840F630
:102400000001C4F20001884236D0FFE7019800685D
:1024100040F60041C4F2000188422DD0FFE7019848
:10242000006840F20041C4F20101884224D0FFE775
:102430000198006841F60001C4F2000188421BD0F7
:10244000FFE70198006844F20001C4F201018842EC
:1024500012D0FFE7019800684EF20001C4F20001BB
:10246000884209D0FFE7019800684EF20041C4F2AB
:102470000001884219D1FFE70198006880680721B0
:10248000C0F2010108400090009806280CD0FFE738
:102490000098B0F5803F07D0FFE701980168086811
:1024A00040F001000860FFE706E001980168086855
:1024B00040F001000860FFE700208DF80B00FFE707
:1024C0009DF80B0003B0704781B0009001B07047D9
:1024D00080B584B0039003980068C06802900398A8
:1024E0000068006901909DF804008007002824D549
:1024F000FFE79DF80800800700281DD5FFE7039837
:1025000001686FF0020008610399012008770398C1
:1025100000688069800720B1FFE70398FFF7D4FFC8
:1025200006E0039800F0FCF8039800F0FDF8FFE7E0
:10253000039900200877FFE7FFE79DF804004007B4
:10254000002825D5FFE79DF80800400700281ED584
:10255000FFE7039801686FF0040008610399022007
:10256000087703980068806910F4407F04D0FFE783
:102570000398FFF7A9FF06E0039800F0D1F803984D
:1025800000F0D2F8FFE7039900200877FFE7FFE7A4
:102590009DF804000007002824D5FFE79DF80800F7
:1025A000000700281DD5FFE7039801686FF00800B9
:1025B000086103990420087703980068C0698007C0
:1025C00020B1FFE70398FFF77FFF06E0039800F0D4
:1025D000A7F8039800F0A8F8FFE703990020087710
:1025E000FFE7FFE79DF80400C006002825D5FFE7B8
:1025F0009DF80800C00600281ED5FFE70398016873
:102600006FF01000086103990820087703980068AC
:10261000C06910F4407F04D0FFE70398FFF754FF30
:1026200006E0039800F07CF8039800F07DF8FFE7DF
:10263000039900200877FFE7FFE79DF80400C00733
:1026400078B1FFE79DF80800C00748B1FFE703989D
:1026500001686FF001000861039800F069F8FFE776
:10266000FFE7019800F08000802806D0FFE79DF882
:1026700005008006002810D5FFE79DF80800000639
:10268000002809D5FFE7039801686FF4025008613C
:102690000398FFF725FEFFE7FFE79DF80500C00759
:1026A00080B1FFE79DF808000006002809D5FFE784
:1026B000039801686FF4807008610398FFF70CFEBF
:1026C000FFE7FFE79DF804004006002810D5FFE76C
:1026D0009DF808004006002809D5FFE70398016827
:1026E0006FF040000861039800F036F8FFE7FFE75D
:1026F0009DF804008006002810D5FFE79DF808002B
:102700008006002809D5FFE7039801686FF02000D4
:1027100008610398FFF7E8FDFFE7FFE704B080BD1D
:1027200081B0009001B0704781B0009001B0704757
:1027300080B582B00190019800684EF20001C4F2A9
:102740000001884203D1FFE7FEF7B2FAFFE702B0CB
:1027500080BD00000000000081B0009001B0704713
:10276000FFE7FEE70000000080B586B00020019082
:102770000590049003900290FEF78EFB01980121D2
:102780008DF808108DF8090003901F228DF8102095
:1027900087228DF811208DF812008DF813008DF826
:1027A00014108DF815108DF816008DF8170002A87A
:1027B000FEF732FB0420FEF783FB06B080BD00006D
:1027C00080B590B000200F900E900D900C900B9063
:1027D000FFE744F2E040C5F60200016841F08001E5
:1027E0000160006800F080000A900A98FFE7FFE7A8
:1027F00044F2E040C5F60200016841F008010160C2
:10280000006800F0080009900998FFE7FFE744F22C
:10281000E040C5F60200016841F040010160006837
:1028200000F0400008900898FFE7FFE744F2E0401E
:10283000C5F60200016841F001010160006800F086
:10284000010007900798FFE740F60040C5F6020038
:1028500001904FF48051009100220492FEF708FA93
:10286000049A41F60000C5F602000590802102910D
:10287000FEF7FEF9009A019804990B920122039247
:102880000C920D910E910BA90691FEF709F8DDF857
:1028900008C0039B049A05980699CDF82CC00C93A8
:1028A0000D920E92FDF7FCFF10B080BD00000000FD
:1028B00080B500F001FE80BDFFE7FEE700000000EC
:1028C000FFE7FEE70000000088B007900691059240
:1028D000079800F0070004900498C0F1070005284D
:1028E00003D3FFE70420019004E00498C0F107003F
:1028F0000190FFE70198039004980430062803D85C
:10290000FFE70020009003E0049803380090FFE701
:102910000098029006980399012202FA01F1013908
:102920000840029B984005999A40013A114008439B
:1029300008B070470000000080B59EB00BA84C2185
:10294000FDF782FE002001900A9009900890079000
:1029500006900590049003900220FEF709FBFFE724
:102960000020029044F61800C5F60200016821F428
:1029700040410160006800F4404002900298FFE787
:10298000FFE744F61800C5F60200006800F40050A6
:10299000B0F5005F01D0FFE7F3E701210B914FF4A1
:1029A00080300C9002201490159016902C221792D3
:1029B000189119901A900C201B9000201C901D90CB
:1029C0000BA8FEF779FF18B1FFE7FDF74DFFFFE712
:1029D0003F200390032104910020059008200690D9
:1029E0004020079008904FF4806209920A9003A853
:1029F000FEF712FB18B1FFE7FDF736FFFFE71EB049
:102A000080BD0000000000004EF68851CEF20001AB
:102A1000086840F47000086042F20000C5F200202F
:102A2000006800F00F0006280AD8FFE742F2000114
:102A3000C5F200210868072262F303000860FFE77F
:102A400044F20041C5F60201086840F00100086048
:102A500044F21042C5F602020020106008684EF6EB
:102A60007F52CEF6F6221040086042F20000C5F216
:102A70000020006800F00F0008280AD3FFE742F2A8
:102A80000001C5F200210868072262F30300086014
:102A9000FFE744F21841C5F602010020086044F245
:102AA0001C41C5F60201086044F22041C5F602014E
:102AB000086044F22842C5F6020240F20021C0F24A
:102AC0000221116044F22C42C5F602020021C0F23C
:102AD000FF11116044F23042C5F6020240F280213B
:102AE000C0F20111116044F23442C5F602021060D6
:102AF00044F23842C5F60202116044F23C42C5F687
:102B00000202106044F24042C5F60202116044F233
:102B10004441C5F60201086044F20042C5F60202D3
:102B2000116821F48021116044F26041C5F6020170
:102B3000086044F2D440C5F602000068C0040028D2
:102B400014D4FFE744F2D441C5F60201086840F40A
:102B50008050086044F20002C5F2002243F2D20025
:102B60001060086820F480500860FFE7704700009C
:102B700080B540F2B860C2F20040FFF7A9FC80BD0A
:102B800083B00290019102980068009002980021A1
:102B9000C4F20101884225D0FFE70298B0F1804FCE
:102BA00020D0FFE7029840F20041C4F200018842C1
:102BB00018D0FFE7029840F60001C4F200018842F5
:102BC00010D0FFE7029840F60041C4F200018842AD
:102BD00008D0FFE7029840F20041C4F201018842A8
:102BE0000AD1FFE7009820F070000090019841683A
:102BF000009808430090FFE702980021C4F2010109
:102C000088424DD0FFE70298B0F1804F48D0FFE7EF
:102C1000029840F20041C4F20001884240D0FFE730
:102C2000029840F60001C4F20001884238D0FFE764
:102C3000029840F60041C4F20001884230D0FFE71C
:102C4000029840F20041C4F20101884228D0FFE717
:102C5000029844F20001C4F20101884220D0FFE74B
:102C6000029844F20041C4F20101884218D0FFE703
:102C7000029844F60001C4F20101884210D0FFE737
:102C800002984EF20001C4F20001884208D0FFE72A
:102C900002984EF20041C4F2000188420AD1FFE7D7
:102CA000009820F4407000900198C1680098084393
:102CB0000090FFE7009820F08000019949690843DF
:102CC0000090019880680299C86201980068029992
:102CD000886202980021C4F20101884220D0FFE7F7
:102CE000029840F20041C4F20101884218D0FFE787
:102CF000029844F20001C4F20101884210D0FFE7BB
:102D0000029844F20041C4F20101884208D0FFE772
:102D1000029844F60001C4F20101884205D1FFE7A0
:102D20000198006902990863FFE70299086840F07A
:102D30000400086002990120486100980299086027
:102D400003B0704700000000FFE7FEE7000000004E
:102D500081B0ADF80200BDF9020000280ED4FFE7F3
:102D6000BDF9021001F01F02012090404A094EF205
:102D70000011CEF2000141F82200FFE701B07047D8
:102D80004EF60C50CEF200000068C0F302207047EF
:102D900082B0ADF806000091BDF9060000280AD403
:102DA000FFE700980001BDF906104EF20042CEF296
:102DB000000288540BE000980001BDF8061001F0F5
:102DC0000F014EF61452CEF200028854FFE702B013
:102DD000704700000000000083B00290029800F0ED
:102DE000070000904EF60C51CEF2000108680190E9
:102DF00001984FF6FF02104001900198009A40EAB6
:102E000002200022C0F2FA5210430190019808609B
:102E100003B070470000000080B596B00C900B9195
:102E20000A9209930A98033020F003000A90EFF306
:102E30001080149014980E9072B60E98089040F27C
:102E4000B800C2F200400068069000200190FFE741
:102E500006980C99086208981390139880F31088CC
:102E60000C980A9900F0C4F90590EFF310801590C2
:102E700015980D9072B60D980890059818B1FFE757
:102E80000120019009E00C98006A0699884203D15C
:102E9000FFE701200190FFE7FFE7FFE70198002827
:102EA000D6D0FFE705980B990860059840B1FFE779
:102EB00008981290129880F310880020079073E011
:102EC0000998002867D0FFE740F2C800C2F200402E
:102ED000006840B1FFE71020079008981190119802
:102EE00080F3108856E0069942F6B170C0F60000F3
:102EF00088660C980699C8660B980699C8670A9860
:102F0000069988670699D1F8AC000130C1F8AC0089
:102F10000C98806A04900C99886A01308862049841
:102F200040B9FFE706980C99486206980067069832
:102F3000406712E00C98406A03900398069908676E
:102F40000398406F02900298069948670698029984
:102F50000867069803994867FFE706990920086300
:102F600006990120886309980699C86440F2C8014F
:102F7000C2F200410868013008600898109010986B
:102F800080F31088069801F06BFB0698D0F8840057
:102F90000790FFE707E008980F900F9880F31088DC
:102FA00010200790FFE7FFE7079816B080BD0000EC
:102FB00080B58EB007900691EFF310800C900C98BE
:102FC000099072B6099805900798806E42F6B17123
:102FD000C0F6000188426AD1FFE706980799D1F848
:102FE000AC10884262D1FFE70798C06E0490049845
:102FF00000285AD0FFE70498006845F24541C4F222
:103000005921884250D1FFE70498806A00284AD0AD
:10301000FFE70799002088660499886A013888626A
:103020000498806A0390039820B9FFE70499002070
:10303000486216E00798006F02900798406F019071
:103040000198029948670298019908670498406AB4
:103050000799884204D1FFE7029804994862FFE784
:10306000FFE70798006B09281CD1FFE7079910209C
:10307000C1F8840040F2C801C2F200410868013082
:10308000086005980B900B9880F31088079801F062
:10309000C3F9EFF310800D900D98089072B6089860
:1030A0000590FFE7FFE7FFE7FFE7FFE7FFE705988A
:1030B0000A900A9880F310880EB080BD00000000CE
:1030C00080B58EB00A900991089207930A9834212E
:1030D000FDF7BAFA079820F00300079009980A99BB
:1030E000486008980A99886107980A99C861089801
:1030F0000A99086108980A994861079808380A9956
:1031000088600A990220C860089805900598079978
:10311000084405900598043805900A98039005988E
:103120000490039804990860059804380590059860
:1031300004900898049908600898039003980490F4
:103140000598049908600898059005980430059042
:103150000598009000994EF6EE60CFF6FF7008607B
:103160000A9900200862EFF310800D900D980B90E3
:1031700072B60B9806900A9945F24540C4F2592060
:10318000086040F28400C2F20040006858B9FFE7CE
:103190000A9840F28801C2F2004108600A98C062B1
:1031A0000A98006315E040F28800C2F2004000680F
:1031B00002900298006B01900A98029908630A989D
:1031C0000199C86201980A99086302980A99C8622D
:1031D000FFE740F28401C2F2004108680130086054
:1031E00006980C900C9880F3108800200EB080BDDB
:1031F00096B00D900C9100200490EFF31080149085
:1032000014980F9072B60F980B900D998868C96842
:1032100000EBC100103800900C980099884208D348
:10322000FFE70B981390139880F3108800200A9002
:10323000F9E040F2B800C2F2004000680390039841
:103240000D9908620D9840690A900D98C068013088
:10325000059000200690FFE70A980430019001983D
:103260000290029800684EF6EE61CFF6FF71884238
:103270004FD1FFE7049830B9FFE70A980D994861EC
:1032800001200490FFE70A980890089800680990C8
:1032900009980A99401A06900698083806900698E8
:1032A0000C99884201D3FFE764E00020069009985A
:1032B0000430019001980290029800684EF6EE6189
:1032C000CFF6FF71884215D1FFE70998079007985C
:1032D0000068089908600D99C8680138C8600D98A1
:1032E00040690999884204D1FFE70A980D9948611D
:1032F000FFE70CE009980790079800680A90059886
:1033000020B1FFE7059801380590FFE7FFE7FFE7E9
:1033100005E00A980890089800680A90FFE7059869
:1033200020B1FFE7059801380590FFE70B98129050
:10333000129880F31088EFF31080159015980E9076
:1033400072B60E980B900D98006A039988420BD0C4
:10335000FFE70D9840690A900D98C068013005900C
:1033600003980D990862FFE7FFE7059800287FF4AE
:1033700073AFFFE7069800284CD0FFE706980C993A
:10338000401A142822D3FFE70A990C980844083001
:103390000990099807900A9808900898006807997A
:1033A00008600998043001900198029002994EF645
:1033B000EE60CFF6FF7008600D99C8680130C860F4
:1033C0000998089908600C980690FFE70A9804305D
:1033D0000190019808900D98089908600D998868E7
:1033E000069A801A083888600A980D9949698842B7
:1033F00007D1FFE70A980890089800680D9948617E
:10340000FFE70B981190119880F310880A98083004
:103410000A9007E00B981090109880F31088002015
:103420000A90FFE7FFE70A9816B070470000000017
:1034300080B500F0A9FE01F003FB40F2AC01C2F23E
:1034400000410020086040F2A801C2F2004108607B
:1034500040F2A401C2F20041086040F2A001C2F2B1
:103460000041086040F29001C2F20041086040F261
:103470008C01C2F20041086040F27C01C2F20041BE
:10348000086040F27801C2F20041086040F2880111
:10349000C2F20041086040F28401C2F200410860BB
:1034A00040F29C01C2F20041086040F29801C2F271
:1034B0000041086080BD000080B582B040F2080085
:1034C000C2F20040006810F10F3F13D0FFE740F256
:1034D0000801C2F200414FF0F0300860FCF790FFA5
:1034E000FFF7A6FF40F2C801C2F2004108680130B0
:1034F0000860FFE740F20801C2F2004101914FF07D
:10350000F030086040F29400C2F20040006802F01F
:10351000AFF9019900200860FCF7B2FF02B080BD4E
:1035200080B58AB006900591049206983421FDF783
:103530008BF8059806994860049806990861EFF39E
:10354000108009900998079072B607980390069921
:1035500045F24540C4F65550086040F2C401C2F23D
:10356000004143F63950C0F60000086040F2980070
:10357000C2F20040006858B9FFE7069840F29C018B
:10358000C2F200410860069800620698406215E0A9
:1035900040F29C00C2F20040006802900298406A2B
:1035A000019006980299486206980199086201986C
:1035B00006994862029806990862FFE740F298016E
:1035C000C2F200410868013008600398089008982A
:1035D00080F3108800200AB080BD000000000000C9
:1035E00080B592B00990EFF31080109010980B9076
:1035F00072B60B9808900998C06904900498012845
:1036000006D8FFE708980F900F9880F31088A5E080
:103610000498022817D1FFE709988069059005985A
:10362000006F03900398C06A0599C96A884204D262
:10363000FFE7039809998861FFE708980E900E98B4
:1036400080F3108889E009988069059005980690B4
:103650000698006F079040F2C801C2F20041086866
:103660000130086000200190FFE70798C06A0699C2
:10367000C96A884203D2FFE707980690FFE70898D7
:103680000D900D9880F31088EFF310801190119831
:103690000A9072B60A980890059809998969884233
:1036A00003D0FFE70120019009E004980999C96956
:1036B000884203D0FFE701200190FFE7FFE7019870
:1036C00020B9FFE70798006F07900DE0099880691F
:1036D00005900998C0690490059806900698006FB7
:1036E000079000200190FFE7FFE7079805998842BF
:1036F000BBD1FFE740F2C801C2F2004108680138BF
:1037000008600698059988421FD0FFE70698006F69
:1037100003900698406F02900298039948670398B7
:10372000029908670598406F029005980699086706
:1037300002980699486706980299086706980599BD
:103740004867069809998861FFE708980C900C98DB
:1037500080F3108800F028FEFFE7FFE7002012B09A
:1037600080BD00000000000080B590B0059004917D
:10377000EFF310800D900D98089072B608980390A2
:103780000598006BC8B1FFE704980599C8620598D1
:10379000D0F898000499884205D2FFE70599D1F83E
:1037A0009800C86303E004980599C863FFE703988D
:1037B0000C900C9880F31088A9E040F2BC00C2F293
:1037C0000040006802900598C06A009040F2C8016D
:1037D000C2F2004108680230086005990E200863B3
:1037E00005990120886305990020C86403980B900F
:1037F0000B9880F31088059800F032FFEFF31080EB
:103800000E900E98079072B6079803900498059949
:10381000C8620598D0F898000499884205D2FFE75D
:103820000599D1F89800C86303E004980599C86326
:10383000FFE703980A900A9880F31088059800F033
:10384000EBFDEFF310800F900F98069072B606987C
:10385000039040F2BC00C2F200400068019005985D
:10386000019988424DD0FFE70598006B002847D1A9
:10387000FFE70598C06A0199C96A88421BD8FFE72B
:1038800005980299884215D1FFE7059840F2BC01DE
:10389000C2F20041086000980499884209D2FFE70B
:1038A0000598C26A40F2CC01C2F2004141F8220000
:1038B000FFE7FFE723E00598C16AC06B88421DD28D
:1038C000FFE70598C06B0199C96A884215D8FFE7E0
:1038D000059840F2BC01C2F20041086000980499CA
:1038E000884209D2FFE70598C26A40F2CC01C2F2D1
:1038F000004141F82200FFE7FFE7FFE7FFE7FFE7AE
:10390000FFE703980990099880F31088FFE710B04B
:1039100080BD00000000000080B5A6B010902020FF
:103920000B90EFF3108021902198159072B61598A6
:103930000F9010988068002800F0F081FFE7109841
:10394000C0680E9040F2B800C2F2004000680690D5
:103950001098C0680699884210D0FFE740F2C8006E
:10396000C2F20040006840B9FFE70F98209020980D
:1039700080F310881E200B90FFE7FFE70B982028AC
:1039800040F0CB81FFE71099886801388860109873
:10399000806840B1FFE70F981F901F9880F3108850
:1039A00000200B90B8E10E9840B9FFE70F981E90E9
:1039B0001E9880F3108800200B90ACE10E99D1F88E
:1039C000A0000138C1F8A0000E98D0F8A00028B9D6
:1039D000FFE70E990020C1F8A40018E01098C06A13
:1039E0000A901098006B099009980A9908630A9840
:1039F0000999C8620E98D0F8A4001099884205D1A0
:103A0000FFE70A980E99C1F8A400FFE7FFE71098B6
:103A1000806978B9FFE71098006950B9FFE71099FD
:103A20000020C8600F991D911D9981F310880B909B
:103A3000FFE7FFE70B98202840F06C81FFE70020AC
:103A40000D900E98D0F894000C9010980069012801
:103A500050D1FFE740F2C801C2F2004108680130CE
:103A600008600F981C901C9880F31088202002900A
:103A70000E98D0F8A4000A90FFE70A98F0B1FFE78B
:103A80000A98006901280BD1FFE70A98806A029919
:103A9000884204D2FFE70A98806A0290FFE7FFE7B6
:103AA0000A98C06A0A900A980E99D1F8A410884220
:103AB00003D1FFE700200A90FFE7DEE7EFF3108075
:103AC00022902298149072B614980F9040F2C80178
:103AD000C2F2004108680138086002980E99C1F8E6
:103AE0009C0002980C99884203D2FFE702980C9040
:103AF000FFE7FFE71098C069022823D3FFE710987B
:103B0000006901281DD1FFE740F2C801C2F200415F
:103B100001910868013008600F981B901B9880F392
:103B200010881098FFF75CFD0199EFF31080239047
:103B30002398139072B613980F90086801380860A4
:103B4000FFE7FFE710988069002839D1FFE740F2CE
:103B5000C801C2F200410868013008600F981A904D
:103B60001A9880F310881099202088621098C068F5
:103B7000C06A0C99884206D0FFE71098C0680C997B
:103B8000FFF7F2FDFFE7EFF31080249024981290E6
:103B900072B612980F9040F2C801C2F20041086854
:103BA00001380860109900200090C8600F981990A3
:103BB000199880F3108800F0F7FB00980B90A8E0AC
:103BC000109880690E901098006901280BD1FFE7CA
:103BD0001098C0680D900E98C06A109948611099AD
:103BE00020208862FFE70E98D0F8A000089008987F
:103BF00048B9FFE710980E99C1F8A4001098C06268
:103C00001098006313E00E98D0F8A4000A900A9868
:103C1000006B099010980A99086310980999C86276
:103C20000998109908630A981099C862FFE70898E4
:103C300001300E99C1F8A0001099012088600E98FB
:103C40001099C8601099C8690138C8611098C06996
:103C50000790079820B9FFE71099002088610FE0CE
:103C60000E98006F05900598109988610E98406F26
:103C70000490049805994867059804990867FFE738
:103C80000E99002088660E99C1F8840040F2C801A0
:103C9000C2F200410868013008600F981890189827
:103CA00080F310881098006901282CD1FFE7109844
:103CB000C069E0B1FFE71098FFF792FCEFF31080C6
:103CC00025902598119072B611980F9010988069E0
:103CD0000390039828B1FFE70398C06A109988629F
:103CE000FFE70F981790179880F31088FFE70D985B
:103CF000C06A0C99884205D0FFE70D980C99FFF730
:103D000033FDFFE7FFE70E9800F086FB00200B90E5
:103D1000FFE7FFE7FFE7FFE7FFE707E00F981690F1
:103D2000169880F310881E200B90FFE70B9826B0A2
:103D300080BD00000000000080B58AB00390EFF362
:103D4000108008900898059072B60598029040F28D
:103D5000C801C2F20041086801300860FFE703981B
:103D6000D0F8A40001900198C0B1FFE701990120AB
:103D7000886002980790079880F310880198FFF7F1
:103D8000CBFDEFF3108009900998049072B6049867
:103D900002900398D0F8A4000190FFE7FFE7019894
:103DA0000028DCD1FFE740F2C801C2F200410868F8
:103DB0000138086002980690069880F310880AB0CF
:103DC00080BD00000000000080B58CB0DDF838C078
:103DD000089007910692059308983821FCF734FC67
:103DE0000798089948600698089988600E9806997F
:103DF0008900B0FBF1F003900398069948430290C4
:103E000005980899886108998869029A00EB8200F0
:103E1000C86105980899086205980899486203984E
:103E20000899486103980899C860EFF310800B90D7
:103E30000B98099072B609980490089944F255506D
:103E4000C5F25510086040F2A000C2F200400068C0
:103E500058B9FFE7089840F2A401C2F20041086097
:103E6000089800630898406315E040F2A400C2F28D
:103E70000040006801900198406B009008980199FB
:103E80004863089800990863009808994863019866
:103E900008990863FFE740F2A001C2F200410868F8
:103EA0000130086004980A900A9880F31088002076
:103EB0000CB080BD0000000089B005900491039211
:103EC00005990020886148610861C8608860486081
:103ED0000860049805994860039805998860EFF395
:103EE000108008900898069072B60698029005997E
:103EF00044F64150C5F24530086040F2A800C2F2D5
:103F00000040006858B9FFE7059840F2AC01C2F2E2
:103F100000410860059840610598806115E040F215
:103F2000AC00C2F2004000680190019880690090E6
:103F3000059801998861059800994861009805994C
:103F40008861019805994861FFE740F2A801C2F233
:103F5000004108680130086002980790079880F3D4
:103F60001088002009B0704780B592B0DDF864C0B9
:103F7000DDF860C0DDF85CC0DDF858C0DDF854C085
:103F8000DDF850C009900891079206930020019037
:103F900014981599EF22FCF74FFB0998B021FCF714
:103FA00053FB08980999886207980999486406980C
:103FB0000999886414980999C86015980999486105
:103FC00016980999C86216980999C1F8940018982A
:103FD0000999886118980999C86109992020C1F840
:103FE0009C0014980090009915980844013800909E
:103FF00000980999086116981799884207D0FFE739
:1040000009990020C8630999C1F8980007E016983B
:104010000999C86316980999C1F89800FFE70999AA
:1040200003200863099944F68910C0F6000048652A
:1040300009988065099844F20921C0F60001FCF74F
:104040007FFAEFF31080109010980B9072B60B98D7
:104050000590099945F24420C5F24840086040F2B5
:10406000B000C2F20040006868B9FFE7099840F26A
:10407000B401C2F2004108600998C0F888000998AC
:10408000C0F88C001AE040F2B400C2F200400068B0
:1040900004900498D0F88C00039009980499C1F812
:1040A0008C0009980399C1F8880003980999C1F810
:1040B0008C0004980999C1F88800FFE740F2B0012C
:1040C000C2F2004108680130086040F2C801C2F243
:1040D00000410868013008601998012832D1FFE7D3
:1040E00040F20800C2F200400068EFF305810C9135
:1040F0000C990843B0F1F03F11D3FFE740F2BC0048
:10410000C2F2004000680290029838B1FFE70298BE
:10411000C06B01900299C86AC863FFE702E0002003
:104120000290FFE705980F900F9880F31088099888
:1041300000F072F9029820B1FFE701980299C86374
:10414000FFE71BE005980E900E9880F31088EFF3C0
:104150001080119011980A9072B60A98059040F25A
:10416000C801C2F2004108680138086005980D9046
:104170000D9880F3108800F017F9FFE7002012B0C7
:1041800080BD00000000000080B582B040F2B801A0
:10419000C2F2004100200190086040F2BC01C2F26E
:1041A0000041086040F24C11C2F20041086040F248
:1041B000C001C2F200412020086040F2CC00C2F2EF
:1041C00000408021FCF740FA019840F2B401C2F2AD
:1041D0000041086040F2B001C2F20041086040F2C4
:1041E000C801C2F20041086040F2C401C2F20041BD
:1041F000086040F28001C2F20041086840F085701A
:10420000086002B080BD000080B588B040F2B80000
:10421000C2F20040006801900198416C806C8847B0
:1042200040F2C400C2F20040006840B1FFE740F233
:10423000C400C2F20040016801988847FFE7EFF32D
:10424000108007900798039072B603980290019926
:10425000012008630199886301990020C86440F235
:10426000C801C2F200410868013008600298049059
:10427000049880F31088EFF314800590059800905F
:10428000009820F00400009000980690069880F3B3
:104290001488019800F0E4F908B080BD0000000027
:1042A00080B58EB00490EFF310800D900D980590BE
:1042B00072B60598039040F2B800C2F20040006860
:1042C0000190019840B9FFE703980B900B9880F399
:1042D00010881320029062E040F20800C2F2004011
:1042E0000068EFF305810C910C99084340B1FFE79A
:1042F00003980A900A9880F31088132002904DE0EA
:10430000019840F20421C2F20041884208D1FFE73F
:1043100003980990099880F31088132002903CE0DC
:10432000049840B9FFE703980890089880F3108834
:104330000020029030E040F2C800C2F20040006865
:1043400040B1FFE703980790079880F31088132087
:10435000029020E0019904200863019901208863FC
:1043600001990020C1F8840004980199C86440F2C2
:10437000C801C2F200410868013008600398069045
:10438000069880F31088019800F06AF90198D0F837
:1043900084000290FFE7FFE7FFE7FFE7FFE70298EF
:1043A0000EB080BD0000000087B040F2C800C2F22D
:1043B000004000680290029860BBFFE740F2B8003E
:1043C000C2F200400068019040F2BC00C2F200401E
:1043D000006800900198009988421AD0FFE74EF6D5
:1043E0000451CEF200014FF080500860EFF30580D9
:1043F0000490049860B9FFE7EFF3108005900598EA
:10440000039062B603980690069880F31088FFE741
:10441000FFE7FFE707B0704780B596B00990EFF36C
:104420001080139013980C9072B60C98089009980D
:10443000406E28B1FFE709984C3000F0FDFB03E027
:1044400009990020C864FFE740F2C801C2F20041A8
:104450000868013808600998806B002840F0A8803F
:10446000FFE70998006B002800F0A180FFE709989A
:10447000406B002840F09380FFE709990020086313
:104480000998C06A0790079940F2CC00C2F2004038
:1044900050F821000590059800286FD1FFE7099892
:1044A000079A40F2CC01C2F2004141F8220009987B
:1044B000006209984062079901208840069040F206
:1044C0004C11C2F200410868069A10430860079830
:1044D00040F2C001C2F20041096888424DD2FFE7B4
:1044E000079840F2C001C2F20041086040F2BC00EF
:1044F000C2F2004000680390039838B9FFE70998BA
:1045000040F2BC01C2F20041086035E0079803990F
:10451000C96B88422FD2FFE7099840F2BC01C2F272
:104520000041086008981090109880F3108840F2BD
:10453000C800C2F20040006801900198D0B9FFE7BE
:104540004EF60451CEF200014FF080500860EFF3B8
:1045500005801190119860B9FFE7EFF31080149077
:1045600014980B9062B60B980D900D9880F31088FC
:10457000FFE7FFE772E0FFE7FFE70FE00598406A1B
:10458000049009980499086209980599486204986A
:1045900009994862059809990862FFE706E00999B8
:1045A00000204863099903200863FFE7FFE71DE047
:1045B0000998006B012818D0FFE70998006B0228C2
:1045C00012D0FFE70998406B30B9FFE70999002046
:1045D00088630999086306E00999002048630999EE
:1045E00003200863FFE7FFE7FFE7FFE740F2B800BB
:1045F000C2F200400068029008980F900F9880F374
:104600001088029840F2BC01C2F200410968884259
:1046100024D0FFE740F2C800C2F2004000680190D9
:104620000198D0B9FFE74EF60451CEF200014FF0E9
:1046300080500860EFF305801290129860B9FFE790
:10464000EFF31080159015980A9062B60A980E90B4
:104650000E9880F31088FFE7FFE7FFE716B080BDF4
:1046600080B59CB00A9040F2B800C2F200400068E9
:104670000190EFF31080189018980E9072B60E9873
:1046800009900A980199884218D1FFE70A98C06CEE
:104690000090009850B1FFE70098013028B1FFE783
:1046A0000A984C3000F05CFAFFE7FFE70A98C0690F
:1046B00040F2B461C2F200410860FFE740F2C80175
:1046C000C2F200410868013808600A98806B01282E
:1046D00040F0D180FFE70A99002088630A98C06AF9
:1046E00008900A98006A039003980A9988421ED09D
:1046F000FFE70A98406A029002980399486203987B
:1047000002990862089940F2CC00C2F2004050F8C9
:1047100021000A99884209D1FFE70398089A40F2DC
:10472000CC01C2F2004141F82200FFE760E0089AA4
:1047300040F2CC00C2F20040002140F82210089A5A
:1047400001209040059040F24C10C2F200400268F7
:10475000059B9A4302600791006806900698A8BBE3
:10476000FFE740F2C001C2F200412020086040F2A1
:10477000BC01C2F20041002008600998149014980E
:1047800080F3108840F2C800C2F200400068049034
:104790000498D0B9FFE74EF60451CEF200014FF075
:1047A00080500860EFF305801590159860B9FFE719
:1047B000EFF31080199019980D9062B60D980F9034
:1047C0000F9880F31088FFE7FFE787E0069890FADC
:1047D000A0F006900698B0FA80F005900798059929
:1047E000084440F2C001C2F200410860FFE7FFE761
:1047F0000A9840F2BC01C2F200410968884239D1EE
:10480000FFE740F2C000C2F20040016840F2CC0075
:10481000C2F2004050F8210040F2BC01C2F2004157
:10482000086009981390139880F3108840F2C8002C
:10483000C2F20040006804900498D0B9FFE74EF639
:104840000451CEF200014FF080500860EFF3058074
:104850001690169860B9FFE7EFF310801A901A9837
:104860000C9062B60C981090109880F31088FFE7B7
:10487000FFE733E0FFE709981290129880F3108861
:10488000019840F2BC01C2F200410968884224D07C
:10489000FFE740F2C800C2F20040006804900498AC
:1048A000D0B9FFE74EF60451CEF200014FF0805030
:1048B0000860EFF305801790179860B9FFE7EFF3F2
:1048C00010801B901B980B9062B60B98119011985A
:1048D00080F31088FFE7FFE7FFE7FFE71CB080BD2C
:1048E00085B040F2B800C2F2004000680090EFF3DB
:1048F000108004900498029072B60298019040F2E1
:104900006411C2F2004100200860009890B3FFE7F4
:104910000098006B68BBFFE70099C8698861009840
:10492000806940F2B461C2F2004108600099086AEF
:1049300088421DD0FFE70099C86AC96B884216D12A
:10494000FFE70098016AC26A40F2CC00C2F2004060
:1049500040F8221040F2C001C2F20041096850F84C
:10496000210040F2BC01C2F200410860FFE7FFE70E
:10497000FFE7FFE701980390039880F3108805B0E4
:10498000704700000000000080B58AB005900598CF
:104990000390EFF3108009900998069072B606987C
:1049A00004900398006B042810D1FFE740F2C8017F
:1049B000C2F2004108680130086004980890089825
:1049C00080F310880398FFF727FD14E00398806EAA
:1049D00002900398D0F8AC000190049807900798D3
:1049E00080F31088029828B1FFE7029A0398019992
:1049F0009047FFE7FFE70AB080BD0000000000001D
:104A000080B584B0EFF3108003900398019072B6E4
:104A10000198009040F2C801C2F2004108680130DC
:104A2000086000980290029880F3108840F20420F9
:104A3000C2F20040FFF7F0FC04B080BD00000000AF
:104A400080B58AB040F20021C2F2004100200890F7
:104A5000086040F2B461C2F20041086040F26411A3
:104A6000C2F20041086040F26011C2F200410860E9
:104A700040F26811C2F20041086040F26C10C2F2CC
:104A8000004007908021FBF7DFFD0799089840F26E
:104A9000F012C2F20042116040F25C12C2F2004217
:104AA00011607C3140F2EC12C2F2004211601168D8
:104AB0000431116040F2FC12C2F2004240F2B42113
:104AC000C2F20041116040F2F812C2F200424FF40B
:104AD0008061116040F2F411C2F200410860FFE70A
:104AE00040F2FC10C2F20040006840F2F811C2F23D
:104AF00000410A6840F2F411C2F200410B686946B5
:104B00004FF0000CC1F814C0C1F810C0CB608B602E
:104B10004A60086040F20420C2F2004045F63E11AF
:104B2000C0F6000144F6A942C0F6000244F64D1357
:104B3000C4F25413FFF718FA0990FFE70998002808
:104B4000CED1FFE740F25811C2F2004100200860C8
:104B500040F25411C2F2004108600AB080BD00006A
:104B600087B00690069800680190019800285FD0F1
:104B7000FFE701980130002859D0FFE706988069C7
:104B8000002853D1FFE70198212803D3FFE71F2016
:104B9000009003E0019801380090FFE740F25C10BC
:104BA000C2F200400068009900EB81000590059872
:104BB00040F2EC11C2F200410968884213D3FFE7CA
:104BC000059840F2EC11C2F200410968401A8010C9
:104BD000029040F2F010C2F200400068029900EB2F
:104BE00081000590FFE70598006840B9FFE7069847
:104BF00000610698406106980599086012E00598E2
:104C0000006804900498406903900698039908612D
:104C100006980499486104980699086103980699D2
:104C20004861FFE7059806998861FFE7FFE7FFE71E
:104C300007B070470000000084B0039003988069BB
:104C40000290029870B3FFE70398006901900398FF
:104C5000019988420BD1FFE70298006803998842C6
:104C600004D1FFE7029900200860FFE716E00398EF
:104C70004069009000980199486101980099086185
:104C8000029800680399884207D1FFE702980199CA
:104C90008861019802990860FFE7FFE70399002007
:104CA0008861FFE704B0704780B598B00A90002093
:104CB00002900A9844F64D11C4F25411884240F013
:104CC000FD80FFE7FFE7EFF31080149014980E903B
:104CD00072B60E98099040F25C10C2F20040006873
:104CE00000680890089820B1FFE7089908A8886133
:104CF000FFE740F25C10C2F2004002680021116040
:104D0000016804310160006840F2EC11C2F2004118
:104D1000096888420BD1FFE740F2F010C2F2004070
:104D2000006840F25C11C2F200410860FFE740F207
:104D30006011C2F200410020086009981390139896
:104D400080F31088EFF31080159015980D9072B6CF
:104D50000D980990FFE70898002800F08680FFE78B
:104D6000089804900898006906900020079004981D
:104D70000699884203D1FFE7002008900EE00498CE
:104D8000406905900598069948610698059908615B
:104D9000069908A8886106980890FFE704980068BB
:104DA00021280ED3FFE70499086820380860002006
:104DB0000390049907A888610498006104980790FB
:104DC00019E00498806803900498C06802900499E0
:104DD000486808600498006840B1FFE7049907A894
:104DE0008861049800610498079003E0049900200A
:104DF0008861FFE7FFE7049840F26811C2F20041C2
:104E0000086009981290129880F31088039820B1D6
:104E1000FFE7039902988847FFE7EFF310801690A9
:104E200016980C9072B60C98099040F26811C2F274
:104E300000410020086007980499884207D1FFE7E5
:104E40000499002088610498FFF78AFEFFE709981B
:104E50001190119880F31088EFF310801790179835
:104E60000B9072B60B98099075E740F26010C2F291
:104E700000400068D8B9FFE740F20420C2F20040C9
:104E8000019001990320086301990120886340F291
:104E9000C801C2F20041086801300860099810900A
:104EA000109880F310880198FFF7DAFB05E0099865
:104EB0000F900F9880F31088FFE704E718B080BDCB
:104EC00080B58AB006900591049203930020029069
:104ED000069818B9FFE70220029038E006980068AB
:104EE00045F24541C4F25921884203D0FFE7022030
:104EF00002902BE0059818B9FFE70320029024E008
:104F0000049818B9FFE7052002901DE0049806995F
:104F1000C969884203D9FFE70520029013E003988E
:104F200080B1FFE740F20800C2F200400068EFF3F2
:104F3000058109910999084318B1FFE704200290FF
:104F4000FFE7FFE7FFE7FFE7FFE7FFE7FFE702987D
:104F500090B9FFE740F2B800C2F20040006801904B
:104F6000019840F20421C2F20041884203D1FFE7D8
:104F700013200290FFE7FFE7029800BBFFE740F233
:104F80000800C2F200400068EFF30581089108991B
:104F9000084398B1FFE740F20800C2F20040006801
:104FA000EFF305810791079908430009B0F10F3F1E
:104FB00003D2FFE713200290FFE7FFE7FFE7029825
:104FC00040B9FFE706980599049A039BFDF724FF73
:104FD0000290FFE702980AB080BD000000000000C8
:104FE00080B592B0DDF850C0099008910792069301
:104FF00000200490099818B9FFE7022004909BE074
:105000001498342803D0FFE70220049093E0EFF3D4
:105010001080109010980B9072B60B98059040F28B
:10502000C801C2F2004108680130086005980D907F
:105030000D9880F3108840F28800C2F200400068AA
:10504000029000200390FFE7039840F28401C2F22F
:105050000041096888420FD2FFE709980299884207
:1050600001D1FFE708E00298C06A0290FFE7FFE77E
:10507000039801300390E7E7EFF310801190119847
:105080000A9072B60A98059040F2C801C2F2004137
:1050900008680138086005980C900C9880F3108817
:1050A000FFF782F909980299884203D1FFE70220AD
:1050B00004903FE0079818B9FFE70320049038E018
:1050C0000698632803D8FFE70520049030E040F2FB
:1050D000B800C2F2004000680190019840F204213B
:1050E000C2F20041884203D1FFE713200490FFE79A
:1050F00040F20800C2F200400068EFF305810F9112
:105100000F99084398B1FFE740F20800C2F200404F
:105110000068EFF305810E910E9908430009B0F184
:105120000F3F03D2FFE713200490FFE7FFE7FFE7FD
:10513000FFE7FFE7FFE7FFE7049840B9FFE70998BB
:105140000899079A069BFDF7BBFF0490FFE70498B8
:1051500012B080BD0000000080B592B009900891A7
:105160000792069300200490099818B9FFE71C20C5
:10517000049067E00698342803D0FFE71C200490D1
:105180005FE0EFF31080109010980B9072B60B98C0
:10519000059040F2C801C2F2004108680130086081
:1051A00005980D900D9880F3108840F29C00C2F293
:1051B00000400068029000200390FFE7039840F24F
:1051C0009801C2F20041096888420FD2FFE70998AE
:1051D0000299884201D1FFE708E00298006A029034
:1051E000FFE7FFE7039801300390E7E7EFF3108054
:1051F000119011980A9072B60A98059040F2C80171
:10520000C2F2004108680138086005980C900C98BB
:1052100080F31088FFF7C8F809980299884203D1F3
:10522000FFE71C2004900BE00798012807D0FFE758
:10523000079818B1FFE71F200490FFE7FFE7FFE79B
:10524000FFE7FFE7049888BBFFE740F2B800C2F22F
:10525000004000680190019840F20421C2F2004130
:10526000884203D1FFE713200490FFE740F20800D3
:10527000C2F200400068EFF305810F910F990843D7
:1052800098B1FFE740F20800C2F200400068EFF377
:1052900005810E910E9908430009B0F10F3F03D22A
:1052A000FFE713200490FFE7FFE7FFE7049838B912
:1052B000FFE709980899079AFEF732F90490FFE78B
:1052C000049812B080BD000080B592B0DDF854C0E3
:1052D000DDF850C0099008910792069300200490D1
:1052E000099818B9FFE709200490ACE01598382810
:1052F00003D0FFE709200490A4E0EFF310801090A2
:1053000010980B9072B60B98059040F2C801C2F24B
:10531000004108680130086005980D900D9880F3F1
:10532000108840F2A400C2F2004000680290002001
:105330000390FFE7039840F2A001C2F20041096820
:1053400088420FD2FFE709980299884201D1FFE70E
:1053500008E00298006B0290FFE7FFE70398013036
:105360000390E7E7EFF31080119011980A9072B65E
:105370000A98059040F2C801C2F20041086801385D
:10538000086005980C900C9880F31088FFF70CF8D3
:1053900009980299884203D1FFE70920049050E060
:1053A000069818B9FFE70320049049E0079818B958
:1053B000FFE70520049042E00798112803D3FFE798
:1053C000052004903AE014990798B0EB910F03D9A7
:1053D000FFE70520049030E040F2B800C2F2004040
:1053E00000680190019840F20421C2F20041884215
:1053F00003D1FFE713200490FFE740F20800C2F258
:1054000000400068EFF305810F910F99084398B1B0
:10541000FFE740F20800C2F200400068EFF30581A8
:105420000E910E9908430009B0F10F3F03D2FFE738
:1054300013200490FFE7FFE7FFE7FFE7FFE7FFE741
:10544000FFE7FFE7FFE7049868B9FFE709980899C5
:10545000079A069BDDF850C0EE46CEF800C0FEF776
:10546000B3FC0490FFE7049812B080BD0000000078
:1054700080B592B00990089107920693002004909D
:10548000099818B9FFE70C2004906DE006981C28D5
:1054900003D0FFE70C20049065E0EFF3108010903C
:1054A00010980B9072B60B98059040F2C801C2F2AA
:1054B000004108680130086005980D900D9880F350
:1054C000108840F2AC00C2F2004000680290002058
:1054D0000390FFE7039840F2A801C2F20041096877
:1054E00088420FD2FFE709980299884201D1FFE76D
:1054F00008E0029840690290FFE7FFE70398013057
:105500000390E7E7EFF31080119011980A9072B6BC
:105510000A98059040F2C801C2F2004108680138BB
:10552000086005980C900C9880F31088FEF73CFFFB
:1055300009980299884203D1FFE70C20049011E0FA
:1055400040F2B800C2F2004000680190019840F2B9
:105550000421C2F20041884203D1FFE713200490E6
:10556000FFE7FFE7FFE7FFE7049800BBFFE740F234
:105570000800C2F200400068EFF305810F910F9917
:10558000084398B1FFE740F20800C2F2004000680B
:10559000EFF305810E910E9908430009B0F10F3F1A
:1055A00003D2FFE713200490FFE7FFE7FFE704982B
:1055B00038B9FFE709980899079AFEF77DFC04902F
:1055C000FFE7049812B080BD2DE9F0419AB0DDF8F4
:1055D00098C0DDF894C0DDF890C0DDF88CC0DDF82F
:1055E00088C0DDF884C0DDF880C0119010910F9262
:1055F0000E9300200C90119818B9FFE70E200C9024
:10560000F0E02698B02803D0FFE70E200C90E8E0E9
:10561000EFF3108018901898139072B613980D90AD
:1056200040F2C801C2F200410868013008600D98DC
:105630001590159880F3108800200B9040F2B4016B
:10564000C2F200410968099120990791079A2199AE
:10565000114401390791079908910A90FFE70A98C8
:1056600040F2B001C2F20041096888423AD2FFE735
:1056700011980999884203D1FFE701200B90FFE7B9
:105680000B98012801D1FFE72CE020980999C968FF
:1056900088420CD3FFE7209809990969884205D20E
:1056A000FFE70020209001200B90FFE7FFE708981C
:1056B0000999C96888420CD3FFE7089809990969D4
:1056C000884205D2FFE70020209001200B90FFE7E1
:1056D000FFE70998D0F888000990FFE70A980130A1
:1056E0000A90BCE7EFF3108019901998129072B6E7
:1056F00012980D9040F2C801C2F2004108680138CA
:1057000008600D981490149880F31088FEF74CFEF2
:1057100011980999884203D1FFE70E200C905FE0B1
:10572000209818B9FFE703200C9058E00F9818B99B
:10573000FFE703200C9051E02198C72803D8FFE72A
:1057400005200C9049E02298202803D3FFE70F2082
:105750000C9041E023982299884203D9FFE7182052
:105760000C9038E02598022803D3FFE710200C9016
:1057700030E040F2B800C2F200400068069006989F
:1057800040F20421C2F20041884203D1FFE7132016
:105790000C90FFE740F20800C2F200400068EFF30F
:1057A000058117911799084398B1FFE740F2080067
:1057B000C2F200400068EFF3058116911699084384
:1057C0000009B0F10F3F03D2FFE713200C90FFE771
:1057D000FFE7FFE7FFE7FFE7FFE7FFE7FFE7FFE799
:1057E000FFE7FFE70C98E8B9FFE7119810990F9AC7
:1057F0000E9BDDF880C0219C229D239E249FDDF816
:105800009480EE46CEF81480CEF81070CEF80C607E
:10581000CEF80850CEF80440CEF800C0FEF7A4FB46
:105820000C90FFE70C981AB0BDE8F0810000000072
:1058300080B582B000200190FCF796FFFBF748FA94
:10584000FDF77AF8FCF7BCFFFDF732F8FFE7FEE75B
:1058500080B582B00190FFE70120FEF721FD41F6FF
:105860000000C5F602008021FBF7EEF9F4E7000026
:1058700080B584B00390002002906946342008600F
:1058800040F20470C2F2004045F62B11C0F6000150
:1058900040F67002C2F200424FF48063FFF7A0FBB3
:1058A00008B1FFE70EE040F20470C2F20040019040
:1058B0000198FAF751FF0290029810B1FFE7FFE755
:1058C000FEE7FFE704B080BDF1EE100A4FF6FF716E
:1058D000C0F2C03120EA010040F04070E1EE100A51
:1058E00070470000000001020304010203040607E0
:1058F00008097478206170702074687265616400B2
:105900007478206170702073656D6170686F726566
:105910000074782061707020717565756500747809
:1059200020617070206D7574657800547820417026
:1059300070206D656D6F727920706F6F6C00537998
:105940007374656D2054696D657220546872656169
:1059500064000000785900080000002418000000CE
:10596000300300089059000818000024601200005D
:1059700050030008000000000090D0030090D00306
:10598000F0F0F0F001000000100000000000000046
:04000005080002CD20
:00000001FF
